:100000000C9495000C94BD000C94BD000C94BD00A4
:100010000C94BD000C94BD000C94BD000C94BD006C
:100020000C94BD000C94BD000C94BD000C94BD005C
:100030000C94BD000C94F1110C94BD000C94BD0007
:100040000C94BD000C94BD000C94DF1F0C94BD00FB
:100050000C944B240C94BD000C94BD000C94BD007A
:100060000C94BD000C94BD000C94BD000C94BD001C
:100070000C9488240C94BD000C94BD00002124270E
:100080002A002225282B0020232629020202020210
:10009000020202040404040404040403030303032B
:1000A0000303030101010101010101010204081020
:1000B0002040800102040810204080010204081042
:1000C000204080804020100804020100000001024E
:1000D000000000000000000403070600000000000C
:1000E0000000000000000000000000494E46494E9C
:1000F0004954594E414ECDCCCC3D0AD7233C17B77D
:10010000D13877CC2B329595E6241FB14F0A0000E9
:1001100020410000C84200401C4620BCBE4CCA1B07
:100120000E5AAEC59D74C60C762111241FBECFEFAA
:10013000D0E1DEBFCDBF12E0A0E0B1E0E4E2F0E547
:1001400002C005900D92A638B107D9F718E0A6E8CD
:10015000B2E001C01D92AA32B107E1F711E0CAE294
:10016000D1E004C02297FE010E94CA27C632D107FF
:10017000C9F70E94D81F0C9410280C940000A0E02E
:10018000B0E0E5ECF0E00C94DF27EC015B016115D9
:10019000710519F0FB0191838083F9908F2D90E018
:1001A0000E94CE27892BC9F7FDE2FF1621F4F990B2
:1001B000EE24E39405C02BE2F21609F4F990EE2444
:1001C0008E0101501040C8016BEE70E043E050E03A
:1001D0000E946C03892B01F58E010E5F1F4FC80131
:1001E0006EEE70E045E050E00E946C03892B19F43C
:1001F0008E01095F1F4FA114B10419F0F50111839D
:100200000083E0FC04C070E090E080E814C070E07F
:1002100090E080E86FEF08C1C80163EF70E043E051
:1002200050E00E946C03892B69F4A114B10429F4F5
:1002300070E090E080EC6FE7F7C02296F501D18383
:10024000C083F6CF8824992440E050E060E070E05D
:10025000EF2DE053EA30A0F5F2E0EF2A8E2D90E08A
:100260009C0128703070E2FE06C0232B79F50894BB
:10027000811C911C2BC0232B19F008948108910834
:10028000DB01CA0112E0880F991FAA1FBB1F1A9534
:10029000D1F7480F591F6A1F7B1F440F551F661F58
:1002A000771F4E0F511D611D711D483929E95207F5
:1002B00029E9620729E1720748F084E0E82A06C0CC
:1002C000EE3F31F4E3FC39C098E0E92AF990C0CF61
:1002D000E53311F0E53189F529912D3219F4E0E18A
:1002E000EE2A05C02B3219F081E090E003C029917D
:1002F00082E090E0E22FE053EA3018F0C81BD90BFF
:100300001CC020E030E0FCE020383F075CF4C9016D
:10031000880F991F880F991F280F391F220F331F2D
:100320002E0F311DE991E053EA3068F3E4FE03C07B
:10033000309521953F4F820E931ECE2CDD24E1FE99
:1003400007C0A114B10421F02197F501D183C08326
:10035000CB01BA010E94C7257B018C01F3E0CF22BB
:10036000DD2423E0C216D10421F417FB109517F900
:10037000109557016801C801B70120E030E040E066
:1003800050E00E942A25882309F44AC097FE0DC038
:100390002AE0E22E21E0F22E909481949108939429
:1003A000C0E2D0E000E010E012C092E2E92E91E05D
:1003B000F92EF6CFF7012591359145915491C6015B
:1003C000B5010E947D265B016C018C1A9D0A8C167A
:1003D0009D0684F7D595C7950F5F1F4F0630110511
:1003E00029F08CEF9FEFE80EF91EF1CFC501D60181
:1003F0007C018D018C2D880F8D2D881F8F3F51F032
:10040000C601B50120E030E040E050E00E942A251E
:10041000882331F482E290E09093290880932808A1
:100420007E2D9F2D802F612F272F392F482F562F5C
:10043000B901CA01CDB7DEB7ECE00C94FB272F92CF
:100440003F925F926F927F928F929F92AF92BF92F4
:10045000CF92DF92EF92FF920F931F93CF93DF9390
:100460008C011B01EA016115710519F0FB019183F3
:100470008083209749F0CE010297839728F020E0EF
:1004800030E040E050E0F6C0F801A1908F018A2DE5
:1004900090E00E94CE27892BB9F7FDE2AF1631F428
:1004A000F801A1908F015524539407C0FBE2AF16C9
:1004B00019F4F801A1908F015524209719F0C0314B
:1004C000D105C1F4F0E3AF1679F4F80180818837E3
:1004D00011F0883549F4F801A1800E5F1F4FF2E05A
:1004E0005F2AC0E1D0E006C0209721F480E3A8167F
:1004F000E9F427C0C830D10531F1C930D10524F461
:10050000C230D10531F50CC0CA30D10589F0C031F7
:10051000D105F9F4C12CD12CE12CB8E0FB2E28C078
:10052000C12CD12CE12CA0E4FA2E22C0CAE0D0E0EC
:10053000FCECCF2EFCECDF2EFCECEF2EFCE0FF2ED3
:1005400017C0C8E0D0E0C12CD12CE12CE0E1FE2E98
:100550000FC09E01442737FD4095542F60E070E0A6
:1005600080E090E80E947727C901DA016C017D01E3
:1005700020E030E040E050E060E03E01882477FC7D
:100580008094982C70EDB72EBA0CE9E0EB1570F45E
:100590008A2D81548A3118F499ECB92E06C08A2D1F
:1005A00081568A3150F589EAB82EBA0C8B2D90E02D
:1005B0008C179D0714F56F3FE1F0C216D306E406D1
:1005C000F506B0F0CA01B901A40193010E944527C4
:1005D0009B01AC012B0D311D411D511D2130F0E05F
:1005E0003F07F0E04F07F0E85F0710F461E001C05B
:1005F0006FEFF801A1908F01C5CF2114310481F074
:10060000662331F001501040F1011183008308C0CE
:1006100051FE1AC002501040F1011183008314C032
:1006200067FF12C050FC05C02FEF3FEF4FEF5FE7B1
:1006300004C020E030E040E050E882E290E0909397
:1006400029088093280816C050FE08C05095409590
:10065000309521953F4F4F4F5F4F0CC057FF0AC059
:1006600082E290E090932908809328082FEF3FEFD3
:100670004FEF5FE7B901CA01DF91CF911F910F9151
:10068000FF90EF90DF90CF90BF90AF909F908F90B2
:100690007F906F905F903F902F900895FC01882786
:1006A0009927E89421912032E9F3293010F02E3077
:1006B000C8F32B3241F02D3239F4689404C00E9403
:1006C000EB03820F911D219120532A30C0F31EF4B9
:1006D000909581959F4F0895FB01DC01415050405A
:1006E00088F08D9181341CF08B350CF4805E65911F
:1006F00061341CF06B350CF4605E861B611171F384
:10070000990B0895881BFCCFFB01DC010D900020A4
:10071000E9F7119701900D920020E1F70895FB0190
:10072000DC0101900D920020E1F70895FB019F018B
:10073000E8944230C4F04532B4F44A3029F497FBCF
:100740001EF4909581959F4F642F77270E94B427C0
:10075000805D8A330CF0895D8193CB010097A1F70E
:1007600016F45DE251931082C9010C94F303FA016F
:10077000CF93FF93EF93223044F1253234F5C22F0B
:10078000E894CA3049F497FB3EF4909580957095B3
:1007900061957F4F8F4F9F4F2C2F3327442755272D
:1007A000FF93EF930E947727EF91FF91605D6A338B
:1007B0000CF0695D6193B901CA01605070408040DE
:1007C000904051F716F4CDE2C19310828F919F9122
:1007D000CF910C94F3037AE0979F902D879F802D03
:1007E000910D11240895DC01FC01672F719177238D
:1007F000E1F7329704C07C916D9370836291AE17DC
:10080000BF07C8F308952F923F924F925F926F9265
:100810007F928F929F92AF92BF92CF92DF92EF9290
:10082000FF920F931F93DF93CF93CDB7DEB72E9731
:100830000FB6F894DEBF0FBECDBF9E878D878B01AC
:100840007A01FB016081718182819381FA012081AB
:100850003181428153810E947D265B016C01F80148
:100860006481758186819781F70124813581468174
:1008700057810E947D263B014C01F80160857185FE
:1008800082859385F70120853185428553850E94B5
:100890007D261B012C01F801648575858685978569
:1008A000F70124853585468557850E947D26698711
:1008B0007A878B879C87F8016089718982899389FF
:1008C000F70120893189428953890E947D267B0165
:1008D0008C01C601B50120E030E040E050E00E940C
:1008E000792688234CF0C601B50120E030E040E0D5
:1008F0005FE30E94C62408C0C601B50120E030E0D5
:1009000040E05FE30E94C5240E94962569837A83B4
:100910008B839C83C401B30120E030E040E050E0D1
:100920000E94792688234CF0C401B30120E030E016
:1009300040E05FE30E94C62408C0C401B30120E088
:1009400030E040E05FE30E94C5240E9496256D835D
:100950007E838F839887C201B10120E030E040E0C0
:1009600050E00E94792688234CF0C201B10120E0BA
:1009700030E040E05FE30E94C62408C0C201B1013C
:1009800020E030E040E05FE30E94C5240E9496250D
:100990003B014C0169857A858B859C8520E030E0A0
:1009A00040E050E00E94792688235CF069857A85D2
:1009B0008B859C8520E030E040E05FE30E94C62408
:1009C0000AC069857A858B859C8520E030E040E00F
:1009D0005FE30E94C5240E9496255B016C01C8015B
:1009E000B70120E030E040E050E00E947926882303
:1009F0004CF0C801B70120E030E040E05FE30E9426
:100A0000C62408C0C801B70120E030E040E05FE341
:100A10000E94C5240E94962529813A814B815C81E0
:100A2000ED85FE8520833183428353832D813E8172
:100A30004F8158852483358346835783608671862A
:100A400082869386A486B586C686D786608B718B90
:100A5000828B938BCF012E960FB6F894DEBF0FBE1C
:100A6000CDBFCF91DF911F910F91FF90EF90DF905D
:100A7000CF90BF90AF909F908F907F906F905F903E
:100A80004F903F902F900895882321F4809181000A
:100A90008B7F29C0813049F4809181008B7F8093C6
:100AA000810080918100826015C0823049F480917C
:100AB00081008B7F8093810080918100826018C0CB
:100AC000833071F4809181008460809381008091F3
:100AD00081008D7F80938100809181008E7F0DC089
:100AE00080918100846080938100809181008D7F5E
:100AF00080938100809181008160809381000895BE
:100B0000E0E8F0E01082A1E8B0E01C9210928200D0
:100B100010926F008C918F7E8C938C9188608C9357
:100B200080818D7F808380818E7F808380818F779D
:100B3000808380818F7B808380818F7D8083808193
:100B40008F7E808384E00E9444058FEF9FEF909317
:100B50008900809388000895FC0180819181A281A1
:100B6000B381803020E0920721E0A20720E0B207A5
:100B70000CF441C0893F2FEF920727E0A20720E045
:100B8000B20744F453E0B595A795979587955A9584
:100B9000D1F731C0813C2FEF92072FE3A20720E06D
:100BA000B20744F446E0B595A795979587954A9581
:100BB000D1F721C081302FEF92072FEFA20720E05D
:100BC000B2073CF4892F9A2FAB2FBB27A7FDBA950C
:100BD00012C081302CEF92072FEFA20723E0B2075B
:100BE0001CF0EFEFFFEF08C02AE0B595A7959795A9
:100BF00087952A95D1F7FC01CF010895EF92FF92D6
:100C00000F931F93DF93CF9300D000D0CDB7DEB703
:100C10007B018C0164E0EE0CFF1C001F111F6A9524
:100C2000D1F7E982FA820B831C83CE0101960E94E0
:100C3000AC05909389008093880080E0E81680E0FE
:100C4000F80681E0080780E0180714F480E022C06D
:100C500089EFE8168FEFF80687E0080780E01807AD
:100C600014F481E017C081ECE8168FEFF8068FE3EB
:100C7000080780E0180714F482E00CC081E0E81651
:100C80008FEFF8068FEF080780E0180714F084E074
:100C900001C083E00E9444050F900F900F900F90C9
:100CA000CF91DF911F910F91FF90EF900895FB017D
:100CB000428181E08283DB0120E030E005C099279A
:100CC00087FD9095280F391F8D918823C1F72150FA
:100CD00030402F733070822F805D828390E0481700
:100CE00009F491E0892F0895CF93DF93DC018AE224
:100CF00055968C93559756968C93569757968C93FA
:100D0000579758966C93589788E459968C935997AF
:100D10005B964C935B97ED0180E090E001C0EB8F18
:100D2000482F495FF901E80FF91FE081EE2329F010
:100D3000019621968A30910591F7C42FD0E0FD01EC
:100D4000EC0FFD1F158A81E05A968C935A97FD018E
:100D5000789620E030E005C0992787FD9095280F10
:100D6000391F81918823C1F7215030402F73307093
:100D7000822F805D5A968C935A97CA0FDB1F84E2AC
:100D80008D8B4F5FA40FB11D55961C92DF91CF91B3
:100D900008958DE161E00E94DF200895FC01E8558F
:100DA000FF4F108232971082E65AF040CF010E9426
:100DB000C90608950F931F938C0108551F4FF80122
:100DC000108202501040F80110820251104081E060
:100DD000F80181938193819381938F0180830859D6
:100DE000104080E090E0A0E0B0E0F801848B958BAB
:100DF000A68BB78B808F918FA28FB38F848F958FA7
:100E0000A68FB78F80A391A3A2A3B3A380E090E0A5
:100E1000AAE7B4E484A395A3A6A3B7A38FE061E0F7
:100E20000E94C12082E161E00E94C12087E161E06F
:100E30000E94C12086E161E00E94C1208BE161E057
:100E40000E94C1208CE161E00E94C12083E161E049
:100E50000E94C12088E161E00E94C1208DE161E033
:100E60000E94C120C8010E94C90684E160E00E947E
:100E7000C12089E160E00E94C1208EE160E00E9413
:100E8000C12083E890ECA0E2B1E4F8018083918373
:100E9000A283B38384839583A683B78389E799E587
:100EA000A0E5B4E480879187A287B38784EA90E7BE
:100EB000A1E0B1E484879587A687B78780E090E0BA
:100EC000A0E8BFE3808B918BA28BB38B1F910F9116
:100ED0000895CF93DF93EC01C859DF4F8881998142
:100EE000AA81BB81C856D0400097A105B10521F069
:100EF00083E160E00E94DF20C459DF4F888199813F
:100F0000AA81BB81CC56D0400097A105B10521F044
:100F100088E160E00E94DF20C059DF4F888199811D
:100F2000AA81BB810097A105B10521F08DE160E0A8
:100F30000E94DF20DF91CF910895CF93DF93EC01E2
:100F4000CA55DF4F8881C65AD040882339F5CC5620
:100F5000DF4F699182E10E94DF20699186E10E9462
:100F6000DF2069918CE10E94DF208881C759D04041
:100F7000882319F080E161E002C080E160E00E9416
:100F8000DF20CE010E94690768EE73E080E090E008
:100F90000E94FE05C855DF4F81E08883DF91CF9125
:100FA000089580912B0391E0892780932B03882358
:100FB00019F080E061E002C080E060E00E94DF2084
:100FC0000895DF93CF93CDB7DEB7C456D0400FB6A8
:100FD000F894DEBF0FBECDBFDE011196E0E0F1E078
:100FE00088E001900D928150E1F7FE0139968CE581
:100FF000DF011D928A95E9F760912604709127041C
:1010000080912804909129046F5F7F4F8F4F9F4FED
:10101000AE01485F5F4F2AE030E00E94B7038AE1EB
:1010200097E00E948B218AE197E0BE016F5F7F4FBE
:101030000E94CE21CC59DF4F0FB6F894DEBF0FBE11
:10104000CDBFCF91DF910895AF92BF92CF92DF9243
:10105000EF92FF920F931F93DF93CF9300D0CDB702
:10106000DEB78C017B016A015901BE016F5F7F4FC2
:101070004AE050E00E941F0229813A81201B310B77
:10108000121613066CF4F7016083718382839383D5
:10109000F601808191818A299B299183808305C0F3
:1010A000F7011082118212821382C9010F900F90F2
:1010B000CF91DF911F910F91FF90EF90DF90CF9034
:1010C000BF90AF900895AF92BF92CF92DF92EF9210
:1010D000FF920F931F93DF93CF9300D0CDB7DEB76E
:1010E0008C017B016A015901BE016F5F7F4F4AE0AD
:1010F00050E00E941F0229813A81201B310B1216F9
:1011000013065CF4F70171836083F601808191819D
:101110008A299B299183808303C0F7011182108261
:10112000C9010F900F90CF91DF911F910F91FF9008
:10113000EF90DF90CF90BF90AF900895AF92BF92A5
:10114000CF92DF92EF92FF920F931F93DF93CF9393
:1011500000D0CDB7DEB78C017B016A015901BE0119
:101160006F5F7F4F0E94BF0029813A81201B310BA6
:10117000121613066CF4F7016083718382839383E4
:10118000F601808191818A299B299183808309C0FE
:1011900080E090E0A0E0B0E0F70180839183A2833B
:1011A000B383C9010F900F90CF91DF911F910F91E1
:1011B000FF90EF90DF90CF90BF90AF9008952F9267
:1011C0003F924F925F926F927F928F929F92AF92D7
:1011D000BF92CF92DF92EF92FF920F931F93DF9314
:1011E000CF93CDB7DEB768970FB6F894DEBF0FBECA
:1011F000CDBF8B015E8B4D8BFC01119211926F0163
:101200007C019C012C5F3F4F3C8B2B8BFC01369665
:10121000FA8BE98B9C01285D3F4F388B2F87FC01AF
:101220003896FE87ED879C01245F3F4F3C872B87D4
:10123000FC017096FA87E9879C012C5E3F4F388746
:101240002F83FC017C96FE83ED839C01205E3F4F43
:101250003C832B83FC01B496FA83E9832CE2222E93
:10126000312C280E391EB0E34B2E512C480E591E3E
:10127000A8E16A2E712C680E791EF6E38F2E912C50
:10128000880E991EE4E3AE2EB12CA80EB91E188E5E
:101290001F8AEDC0EF89F88DE00FF11FE081E03586
:1012A00009F45DC0E135DCF4E93409F484C0EA34C2
:1012B00074F4E63409F495C0E73434F4EA3209F4FE
:1012C000C4C0E53409F5A9C0E734F1F420C0ED3419
:1012D00041F1EE3409F4ADC0EA34B1F477C0E4353D
:1012E00059F1E5354CF4E23509F486C08F89988DC3
:1012F0000196E33564F58AC0E93509F446C0EA355C
:1013000009F44EC0E835B1F180E090E0A9C08F89C2
:10131000988D0196800F911FB601A70121E030E062
:101320009DC08F89988D0196800F911F6B897C8954
:10133000A70122E030E092C08F89988D0196800F3E
:10134000911F69897A89A70120E030E487C0800F66
:10135000911F6F857889A70120E034E067C08F89ED
:10136000988D0196800F911F6D857E85A70124E0E1
:1013700030E05CC08F89988D0196800F911F6B853E
:101380007C85A70128E030E051C08F89988D0196B7
:10139000800F911F69857A85A70120E130E046C062
:1013A0008F89988D0196800F911F6F817885A70195
:1013B00020E230E03BC08F89988D0196800F911F0D
:1013C0006D817E81A70120E430E030C08F89988D47
:1013D0000196800F911F6B817C81A70120E030E88E
:1013E00025C08F89988D0196800F911F69817A8120
:1013F000A70120E032E01AC08F89988D0196800FF6
:10140000911FB101A70120E030E110C0800F911FB2
:10141000B201A70120E038E009C08F89988D0196BC
:10142000800F911FB301A70120E030E20E949E08C7
:1014300017C08F89988D0196800F911FB401A70165
:1014400020E830E00E9424080BC08F89988D019617
:10145000800F911FB501A70120E031E00E946308D1
:1014600001962F89388D280F391F388F2F8B8F8940
:10147000988DED89FE898E179F070CF40BCF689627
:101480000FB6F894DEBF0FBECDBFCF91DF911F9195
:101490000F91FF90EF90DF90CF90BF90AF909F9013
:1014A0008F907F906F905F904F903F902F90089516
:1014B0008BE892E064E671E00E948F0308958BE868
:1014C00092E067E671E00E948F0308958BE892E056
:1014D0006AE671E00E948F030895FC0183E090E0CA
:1014E00095A784A78BE892E06DE671E00E948F03D8
:1014F0000895FC0181E090E095A784A78BE892E035
:1015000060E771E00E948F0308958BE892E063E743
:1015100071E00E948F0308958BE892E066E771E026
:101520000E948F0308958BE892E069E771E00E94C2
:101530008F0308958BE892E06CE771E00E948F03BF
:101540000895FC011082148A12A613A68BE892E07B
:101550006FE771E00E948F030895FC0111A68BE8EC
:1015600092E062E871E00E948F030895EF92FF928B
:101570000F931F937C010BE812E0C80165E871E04E
:101580000E948F03C801B7010E9484031F910F912D
:10159000FF90EF900895EF92FF920F931F937C01BD
:1015A0000BE812E0C80169E871E00E948F03C801EE
:1015B000B7010E9484031F910F91FF90EF9008954F
:1015C0000F931F938C010E944F20E0E0D8019E965C
:1015D0002D913D914D915C91D197621B730B840BC2
:1015E000950B643071058105910508F0E1E08E2FBF
:1015F0001F910F910895CF93DF93EC018CA59DA5CA
:10160000892B29F4CE010E949A0A80E01CC08CE04C
:1016100061E00E94DF201DA61CA68EE090E00197ED
:10162000F1F704C08DE197E00E9490218DE197E0F1
:101630000E9495218823B1F70E944F206EA77FA7B3
:1016400088AB99AB81E0DF91CF910895CF93DF9381
:10165000EC018CA59DA5892B19F08AA5882339F06A
:10166000CE010E948C0A80E0DF91CF910895CE01D7
:101670000E947406CE010E94FB0A81E0F5CFCF9351
:10168000DF93EC018AA5882329F0CE010E94930AFA
:1016900080E013C08CE060E00E94DF2082E090E0F8
:1016A0009DA78CA78EE090E00197F1F70E944F2054
:1016B0006EA77FA788AB99AB81E0DF91CF910895AA
:1016C000FC01158A11A61082148A12A613A60E9484
:1016D0003F0B08950F931F938C018DE061E00E94F2
:1016E000C1208CE061E00E94C1208DE060E00E949A
:1016F000DF20C8010E94600B1F910F9108951F9376
:10170000CF93DF93EC018CA59DA58130910509F461
:101710004DC0823091051CF4892B49F09DC0823068
:10172000910509F446C0039709F096C08DC08DE17C
:1017300097E00E949521882371F08DE197E00E9447
:101740009021182F0E944F206EA77FA788AB99ABDE
:10175000143271F409C0CE010E94E00A882341F0DE
:10176000CE010E94790A7BC0CE010E94600B77C037
:1017700089A5FE01E80FF11D4589442309F46FC0D6
:10178000552747FD5095652F752F8DE197E020E097
:1017900030E00E94AC2289A58F5F89A789A584319A
:1017A00008F43FC0CE010E94AD0A3BC01D8A19A6B5
:1017B0004BC08DE197E00E9495218823C9F18DE10E
:1017C00097E00E949021982F843231F08A32C1F440
:1017D0001C8A81E08AA725C08AA5882311F11AA650
:1017E0008C89FE01E80FF11D10828881883429F070
:1017F00018821C8A1AA61BA614C081E08BA711C0F0
:101800008AA5882371F08C89FE01E80FF11D908371
:101810008C898F5F8C8B8C89843118F0CE010E946B
:10182000A10A0E944F206EA77FA788AB99AB17C073
:101830008AA58823A1F0CE010E94E00A882379F0CE
:10184000CE010E946D0A0BC018821C8A1AA61BA624
:10185000CE010E943F0B03C0CE010E94850ADF919A
:10186000CF911F910895EF92FF920F931F93CF9303
:10187000DF93EC010E944F207B018C0114C0CE014C
:101880000E947F0B0E944F206E197F09800B910BE5
:10189000643071058105910530F0CE010E94660A21
:1018A0001BA680E005C08BA5882349F31BA681E019
:1018B000DF91CF911F910F91FF90EF900895CF93FB
:1018C000DF93EC019A0141E40E94260B882321F466
:1018D000CE010E945F0A1BC0CE010E94330C8823F8
:1018E00021F4CE010E94580A12C0CE01BE010E940E
:1018F0005706882321F4CE010E94CB0A08C08B81B1
:10190000813411F481E004C0CE010E94B60A80E067
:10191000DF91CF9108950F931F938C01CB01F801B4
:101920007283618324E52187B801665F7F4F4AE0B7
:1019300050E00E9496038FEE92E0F8016081075F0D
:101940001F4FA8010E945F0C1F910F9108950F93E4
:101950001F938C01FC01608381E161E00E94C12042
:1019600080E161E00E94C12081E160E00E94DF200F
:1019700080E160E00E94DF20C80160E070E00E942A
:101980008B0CF801178E1F910F9108958AE294E055
:1019900061E30E94A70C8AE494E060E30E94A70C34
:1019A0008FEE92E00E946A0B8AE694E00E94DA06CB
:1019B00083E195E00E94DA068CEB95E00E94DA065E
:1019C00085E696E00E94DA0608950F931F938C0136
:1019D000862F93E4F8019187B801665F7F4F90E00E
:1019E0004AE050E00E9496038FEE92E0F801608199
:1019F000075F1F4FA8010E945F0C1F910F91089570
:101A0000CF93DF93FC01EA01662321F086E581870D
:101A100081E303C086E5818780E3828713868FEEAA
:101A200092E060813996AF010E945F0CBE01882769
:101A300077FD8095982F0E945D20DF91CF910895CA
:101A4000CF93DF93EC010E945F0C882309F41C8282
:101A50009E012C5F3F4FC901DF91CF910895FC019A
:101A600084E7818712868FEE92E060813996AF011C
:101A70000E94200D0E944E030895EF92FF920F9353
:101A80001F937C010AE117E0C8016DE871E00E9434
:101A90009F21C7010E942F0DBC01C8010E949C22FA
:101AA0001F910F91FF90EF900895EF92FF920F9387
:101AB0001F93CF93DF93EC011C821B8218861F8239
:101AC0001E821D82FF24EE24E3940F811885CE012F
:101AD0000E942F0D9C01200F311F38872F838B818F
:101AE0009C8101969C838B8306972CF1C90165E04C
:101AF00070E00E94642778876F8389819A810597B7
:101B00006817790734F08AE08F15E0F0F394EE243B
:101B10000EC0EE2061F08D819E81861797071CF420
:101B20007E836D8304C0CE010E943D0D0BC01886DC
:101B30001F821C821B8268EE73E080E090E00E94AE
:101B40005D20C3CFDF91CF911F910F91FF90EF9058
:101B50000895AF92CF92DF92EF92FF920F931F936F
:101B6000CF93DF93EB01C016D106E206F30611F422
:101B700020E010C077FD0DC0AA2059F4862F0E94E6
:101B80002A21892B31F48C2F0E942A2120E0892BD5
:101B900009F021E0822FDF91CF911F910F91FF90EB
:101BA000EF90DF90CF90AF9008952F923F924F9299
:101BB0005F926F927F928F929F92AF92BF92CF92DD
:101BC000DF92EF92FF920F931F93DF93CF93CDB7E6
:101BD000DEB7AC970FB6F894DEBF0FBECDBF885509
:101BE0009F4FDC018C91A85AB040BCA7ABA78823BB
:101BF00009F4DEC3AC56BF4FBA83A983EBA5FCA59D
:101C0000E05CFF4FFC83EB832BA53CA52C5A3F4F98
:101C10003E832D838BA59CA587569F4F98878F83E6
:101C2000ABA5BCA5AB56BF4FBA87A987EBA5FCA552
:101C3000EC5BFF4FFC87EB872BA53CA5285A3F4F59
:101C40003E872D878BA59CA586569F4F988B8F87A7
:101C5000ABA5BCA5AA56BF4FBA8BA98BEBA5FCA51B
:101C6000E85BFF4FFC8BEB8B2BA53CA5245A3F4F29
:101C70003E8B2D8B8BA59CA585569F4F988F8F8B68
:101C8000ABA5BCA5A956BF4FBA8FA98F7CE4272E60
:101C9000312CEBA5FCA52E0E3F1EE05AFF4FFC8F0A
:101CA000EB8F2BA53CA524563F4F3E8F2D8F8BA548
:101CB0009CA588569F4F98A38F8F60E5462E512C88
:101CC000ABA5BCA54A0E5B1EAC59BF4FBAA3A9A3D6
:101CD000EBA5FCA5E356FF4FFCA3EBA357EA652E4B
:101CE000712C2BA53CA5620E731E28593F4F3EA3B5
:101CF0002DA38BA59CA584589F4F98A78FA34EE931
:101D0000842E912CABA5BCA58A0E9B1EA459BF4F57
:101D1000BAA7A9A7E981FA81A080AB81BC810D9106
:101D20001D912D913C91ED81FE81C080D180E2809A
:101D3000F3808BA59CA564E170E045E150E00E9432
:101D4000A90DAF81B8858C93E985FA85A080AB8514
:101D5000BC850D911D912D913C91ED85FE85C08036
:101D6000D180E280F3808BA59CA569E170E04AE117
:101D700050E00E94A90DAF85B8898C93E989FA8952
:101D8000A080AB89BC890D911D912D913C91ED896D
:101D9000FE89C080D180E280F3808BA59CA56EE196
:101DA00070E04FE150E00E94A90DAF89B88D8C938F
:101DB000E98DFA8DA080D1010D911D912D913C915D
:101DC000EB8DFC8DC080D180E280F3808BA59CA53B
:101DD0006FEF7FEF4FEF5FEF0E94A90DAD8DBE8DCE
:101DE0008C93EF8DF8A1A080D2010D911D912D91C2
:101DF0003C91E9A1FAA1C080D180E280F3808BA55B
:101E00009CA56FEF7FEF4FEF5FEF0E94A90DABA195
:101E1000BCA18C93F3011082AF81B8858C9188238B
:101E200009F45AC0EDA1FEA180819181A281B38104
:101E3000EFA1F8A52081318142815381820F931F48
:101E4000A41FB51F80839183A283B383181619063C
:101E50001A061B060CF040C08FE061E00E94DF20F4
:101E60008EE090E00197F1F78FE060E00E94DF20C4
:101E700081E0D3018C93F40120813181428153812F
:101E8000EFA1F8A580819181A281B381821B930B80
:101E9000A40BB50B80839183A283B383A981BA81FC
:101EA0008C91EB81FC812081318142815381882397
:101EB00049F02F5F3F4F4F4F5F4F20833183428365
:101EC00053830AC02150304040405040EB81FC8198
:101ED0002083318342835383AF85B8898C918823D3
:101EE00009F45AC00BA51CA500581F4FE9A5FAA577
:101EF00080819181A281B381F80120813181428169
:101F00005381820F931FA41FB51F80839183A283E7
:101F1000B383181619061A061B060CF03DC087E19C
:101F200061E00E94DF208EE090E00197F1F787E109
:101F300060E00E94DF2081E0D3018C93F4012081D6
:101F4000318142815381F80180819181A281B381E5
:101F5000821B930BA40BB50B80839183A283B38365
:101F6000A985BA858C91882351F0EB85FC85808109
:101F70009181A281B3810196A11DB11D09C0EB859C
:101F8000FC8580819181A281B3810197A109B1096A
:101F900080839183A283B383AF89B88D8C9188238A
:101FA00009F460C00BA51CA50C571F4FEBA5FCA5A1
:101FB000E059FF4F80819181A281B381E057F040C9
:101FC000FCA7EBA7F8012081318142815381820F68
:101FD000931FA41FB51F80839183A283B383181618
:101FE00019061A061B060CF03DC08BE161E00E9449
:101FF000DF208EE090E00197F1F78BE160E00E9436
:10200000DF2081E0D3018C93F40120813181428172
:102010005381F80180819181A281B381821B930B4E
:10202000A40BB50B80839183A283B383A989BA895A
:102030008C91882351F0EB89FC8980819181A28168
:10204000B3810196A11DB11D09C0EB89FC89808176
:102050009181A281B3810197A109B1098083918304
:10206000A283B383AD8DBE8D8C91882309F46CC09F
:102070006BA57CA568577F4FEBA5FCA5EC58FF4FDF
:1020800080819181A281B381E457F040FCA7EBA746
:10209000FB012081318142815381820F931FA41F54
:1020A000B51F80839183A283B383181619061A067D
:1020B0001B060CF049C0E0918A02F0E0EE0FFF1F12
:1020C000EA57FD4F0190F081E02D878D91E089273F
:1020D000878F882319F081E161E002C081E160E02F
:1020E0000E94DF2081E0D3018C93F40120813181B3
:1020F00042815381EBA5FCA5E857FF4F8081918178
:10210000A281B381821B930BA40BB50B80839183B7
:10211000A283B383A98DBA8D8C91882349F0F101F4
:1021200080819181A281B3810196A11DB11D08C05A
:10213000F10180819181A281B3810197A109B10947
:1021400080839183A283B383ABA1BCA18C918823AC
:1021500009F44AC0EBA5FCA5E457FF4F2BA53CA50D
:1021600028583F4FD9012D913D914D915C91139786
:10217000A857B040BCA7ABA780819181A281B38151
:10218000280F391F4A1F5B1F2083318342835383EB
:1021900012161306140615063CF5D401ED90FD90B9
:1021A0000D911C912E193F09400B510B2083318357
:1021B00042835383EF8DF8A18081882349F0F20197
:1021C00080819181A281B3810196A11DB11D08C0BA
:1021D000F20180819181A281B3810197A109B109A6
:1021E00080839183A283B383D3018C91882309F4E4
:1021F0008EC0EBA5FCA5E057FF4FFCA7EBA7D201D3
:102200006D917D918D919C9120813181428153818D
:102210000E944527EBA5FCA57296DF0160837183C0
:1022200082839383A25AB040BCA7ABA70E94C92562
:102230007B018C01EBA5FCA564AD75AD86AD97ADBA
:1022400020EC31EE44E65CE40E947D265B016C01EB
:10225000D4016D917D918D919C910E94C9259B0126
:10226000AC01C801B7010E947D269B01AC01C601EB
:10227000B5010E942E2520E030E040E050E00E94B1
:1022800079268823D4F0F401608171818281938161
:102290000E94C9259B01AC01C801B7010E947D269F
:1022A0009B01AC01C601B5010E942E2520E030E063
:1022B00040E05FE30E94C62419C0D4016D917D9176
:1022C0008D919C910E94C9259B01AC01C801B70169
:1022D0000E947D269B01AC01C601B5010E942E25FE
:1022E00020E030E040E05FE30E94C5240E94962594
:1022F000EBA5FCA5EE55FF4FDF0160837183828360
:102300009383A25AB040BCA7ABA70E94FE05F3017D
:102310008081882309F03FC0ABA1BCA18C918823A8
:10232000D1F1F8CCEBA5FCA5E656FF4F8081EA5928
:10233000F040FCA7EBA78823D1F4E556FF4F80813E
:10234000EB59F040FCA7EBA7882389F4E456FF4F34
:102350008081EC59F040FCA7EBA7882341F4E356B9
:10236000FF4F8081ED59F040FCA7EBA701C081E051
:10237000EBA5FCA5E855FF4F808380818823C1F43D
:102380008BA59CA50E94C90668EE73E080E090E0F2
:102390000E94FE050DC02BA53CA527563F4FD90135
:1023A0008C91A959B040BCA7ABA7882301F7BACF3D
:1023B000AC960FB6F894DEBF0FBECDBFCF91DF91C4
:1023C0001F910F91FF90EF90DF90CF90BF90AF9053
:1023D0009F908F907F906F905F904F903F902F9045
:1023E00008951F920F920FB60F9211241F932F93EF
:1023F0003F934F935F936F937F938F939F93AF938D
:10240000BF93EF93FF9380916F008D7F80936F0058
:1024100080912C0390912D03019690932D0380932E
:102420002C038058924031F40E94D10710922D0362
:1024300010922C03E0912A03F0E0EE0FFF1FEF5DF6
:10244000FC4F0190F081E02DE855FF4F80818823FB
:1024500061F0E0912A03F0E0EE0FFF1FEF5DFC4F0B
:10246000808191810E94D50D22C090912A03809194
:102470002903981799F5E0912A03F0E0EE0FFF1F6A
:10248000EF5DFC4F0190F081E02DE855FF4F80811A
:10249000882321F50CC0E12FF0E0EE0FFF1FEF5D68
:1024A000FC4F808191810E949D0710932A038091A7
:1024B0006F00826080936F00FF91EF91BF91AF91A9
:1024C0009F918F917F916F915F914F913F912F914C
:1024D0001F910F900FBE0F901F90189510912A0317
:1024E0001F5F1430C0F210E0D6CF2F923F924F9270
:1024F0005F926F927F928F929F92AF92BF92CF9294
:10250000DF92EF92FF920F931F93DF93CF93CDB79C
:10251000DEB7A4970FB6F894DEBF0FBECDBF2C0177
:102520006BA37CA3DC015496FB0184E101900D9226
:102530008150E1F726EA30E0420E531ED2011C9290
:10254000EAE5FFEF4E0E5F1ED20154966D917D912C
:102550008D919C91579720912E0330912F0340919C
:102560003003509131030E94C5245B016C01E89453
:10257000D7F8F201608D718D828D938D2091320399
:102580003091330340913403509135030E94C524A8
:102590007B018C01E89417F9D2015C966D917D91D5
:1025A0008D919C915F972091360330913703409134
:1025B0003803509139030E94C5243B014C01E89433
:1025C00097F8F20160A171A182A193A120913A0331
:1025D00030913B0340913C0350913D030E94C52440
:1025E0009B01AC015F77298F3A8F4B8F5C8FD201B3
:1025F00094966D917D918D919C91979720913E033A
:1026000030913F0340914003509141030E94C52403
:102610009B01AC015F772D8F3E8F4F8F58A3D20166
:10262000D8962D933D934D935C93DB97298D3A8DEE
:102630004B8D5C8DD4962D933D934D935C93D797A2
:10264000F20160AA71AA82AA93AA9C96ED92FD92C9
:102650000D931C939F97A0A6B1A6C2A6D3A6C601B0
:10266000B501A60195010E947D265B016C01C801A0
:10267000B701A80197010E947D269B01AC01C6010C
:10268000B5010E94C6247B018C01C401B301A401E1
:1026900093010E947D269B01AC01C801B7010E94F5
:1026A000C624D201DC966D937D938D939C93DF9726
:1026B00027E137EB41ED58E30E942A2588236CF48B
:1026C000698D7A8D8B8D9C8D9B01AC010E947D263E
:1026D000F20164AF75AF86AF97AFD201DC966D9112
:1026E0007D918D919C91DF9727E137EB41ED58E388
:1026F0000E942A2588236CF46D8D7E8D8F8D98A184
:102700009B01AC010E947D26F20164AF75AF86AFDC
:1027100097AFD201DC966D917D918D919C91DF9761
:102720000E94E426F20164AF75AF86AF97AFF42C38
:10273000E52C8E010F5F1F4FC801B2014EE253E03E
:102740000E940304D201A05CBF4FF80184E1019014
:102750000D928150E1F724E130E0420E531E8E01CC
:102760000F5F1F4FC8016F2D7E2DA2010E94030431
:1027700040E450E0440E551ED2018CEA9FEF480E13
:10278000591EF80184E101900D928150E1F7F201A8
:10279000EC5AFF4FA0E4B0E04A0E5B1E60807180EF
:1027A00082809380F20180819181A281B38120ECAB
:1027B0003FEF420E531E681A790A8A0A9B0A97FE57
:1027C00008C09094809470946094611C711C811C6A
:1027D000911CF201E85AFF4F44E450E0440E551EAC
:1027E000E080F18002811381F20180819181A281D8
:1027F000B3812CEB3FEF420E531EE81AF90A0A0B85
:102800001B0B17FF08C010950095F094E094E11C95
:10281000F11C011D111DF201E45AFF4F48E450E084
:10282000440E551E80819181A281B3818D8B9E8B38
:10283000AF8BB88FF20180819181A281B38128EBA7
:102840003FEF420E531E2D893E894F89588D281B1C
:10285000390B4A0B5B0B2D8B3E8B4F8B588F57FFE1
:102860000BC050954095309521953F4F4F4F5F4F8E
:102870002D8B3E8B4F8B588FF201E05AFF4F4CE46B
:1028800050E0440E551EA080B180C280D380F2017A
:1028900080819181A281B38124EB3FEF420E531ED0
:1028A000A81AB90ACA0ADB0AD7FE08C0D094C09495
:1028B000B094A094A11CB11CC11CD11CB2016858D9
:1028C0007F4FF201EC59FF4F40E550E0440E551E9A
:1028D0002081318142815381F20180819181A281E5
:1028E000B381E0EBFFEF4E0E5F1E281B390B4A0B46
:1028F0005B0B57FF07C050954095309521953F4F92
:102900004F4F5F4FDB012D933D934D935C93139796
:10291000E4E7F0E04E0E5F1ED201AD92BD92CD9283
:10292000DC9213972D893E894F89588D5E934E9383
:102930003E932E93FD0112930293F292E292DF01F5
:102940009E928E927E926E922D01E8E9FFEF4E0EDE
:102950005F1ED401C3016E147F048006910614F437
:10296000D801C701F201E256FF4F80839183A28311
:10297000B383E080F1800281138120E730E0420ED2
:10298000531ED2012D913D914D915C9180E99FEFB5
:10299000480E591E2E153F054007510724F420818B
:1029A000318142815381F201E256FF4F208331830E
:1029B00042835383E080F18002811381A4E7B0E079
:1029C0004A0E5B1ED2012D913D914D915C918CE898
:1029D0009FEF480E591E2E153F054007510724F45E
:1029E00020813181428153816EE9E62EF12CE40C85
:1029F000F51CD7012D933D934D935C9313978D91C7
:102A00009D910D90BC91A02D0097A105B10599F461
:102A1000E6EAF0E04E0E5F1E81E0D2018C93AEE25A
:102A2000B3E02BA13CA1C901FC0184E101900D920E
:102A30008150E1F78AC194E6292E312C240C351CF3
:102A4000F10160807180828093809201205B3F4F12
:102A50003AA329A3D9016D927D928D929C921397EE
:102A6000E8E7F0E04E0E5F1ED2011D921D921D920E
:102A70001C921397E8E8FFEF4E0E5F1E820100578D
:102A80001F4F21E030E040E050E0D8012D933D930E
:102A90004D935C931397F70180819181A281B3815B
:102AA000B7FF6DC0208131814281538160E070E0C9
:102AB00080E090E00E94992759016A01D801AD9207
:102AC000BD92CD92DC921397B3E0AB16B104C10472
:102AD000D1040CF445C0C401B301A60195010E94C4
:102AE0009927F1012083318342835383C401B301C9
:102AF000A60195010E949927C901DA01E9A1FAA16D
:102B000080839183A283B383281B390B4A0B5B0B11
:102B100057FF07C050954095309521953F4F4F4F37
:102B20005F4F88E790E0480E591ED2012D933D93E8
:102B30004D935C931397E8E8FFEF4E0E5F1EF20192
:102B4000E256FF4F80819181A281B3818217930762
:102B5000A407B507A4F420833183428353830FC0B5
:102B600021E030E040E050E0D8012D933D934D93BB
:102B70005C931397F701108211821282138210E086
:102B8000D20154966D917D918D919C915797209192
:102B90002E0330912F0340913003509131030E9456
:102BA000792688230CF011E0E4E9F0E04E0E5F1E78
:102BB000D2011C93ECE6FFEF4E0E5F1E10E0D20137
:102BC00058966D917D918D919C915B9720913203E8
:102BD0003091330340913403509135030E9479269C
:102BE00088230CF011E0E5E9F0E04E0E5F1ED20103
:102BF0001C93EBE6FFEF4E0E5F1E10E0D2015C96D9
:102C00006D917D918D919C915F97209136033091CC
:102C1000370340913803509139030E947926882365
:102C20000CF011E0E6E9F0E04E0E5F1ED2011C93BD
:102C3000EAE6FFEF4E0E5F1E10E0D20190966D9116
:102C40007D918D919C91939720913A0330913B0314
:102C500040913C0350913D030E94792688230CF05B
:102C600011E0E7E9F0E04E0E5F1ED2011C93E9E6A9
:102C7000FFEF4E0E5F1E10E0D20194966D917D9194
:102C80008D919C91979720913E0330913F03409105
:102C90004003509141030E94792688230CF011E0F3
:102CA000E8E9F0E04E0E5F1ED2011C93E6E0F0E092
:102CB0004E0E5F1ED2016D917D918D919C91E2E649
:102CC000FFEF4E0E5F1E22E030E040E050E00E9439
:102CD000992750954095309521953F4F4F4F5F4F25
:102CE000D201A458BF4F2C9311963C931197129682
:102CF0004C93129713965C931397F201E058FF4F91
:102D0000208331834283538324E830E0420E531EF4
:102D10008D919D910D90BC91A02DF2018193919385
:102D2000A193B19381939193A193B1938083918364
:102D3000A283B383AEE2B3E02BA13CA1C901FC01A5
:102D400084E101900D928150E1F7A4960FB6F894BA
:102D5000DEBF0FBECDBFCF91DF911F910F91FF90CE
:102D6000EF90DF90CF90BF90AF909F908F907F902B
:102D70006F905F904F903F902F9008951F93CF9347
:102D8000DF93EC0106C061E070E080E090E00E941B
:102D90005D2080912A03882329F4809129038330C0
:102DA00059F4F1CF2091290380912A0330E090E07B
:102DB00001972817390739F3109129031F5F143041
:102DC00008F010E0E12FF0E0EE0FFF1FEF5DFC4F89
:102DD00080819181BE010E94751210932903DF91B9
:102DE000CF911F910895CF93DF93EC019B01A8ED44
:102DF000B3E0EEE2F3E084E101900D928150E1F75F
:102E000088819981AA81BB818093D8039093D9034B
:102E1000A093DA03B093DB03F90180819181A28151
:102E2000B3818093E8039093E903A093EA03B093FE
:102E3000EB0388ED93E00E94BE16DF91CF910895D9
:102E4000CF93DF93EC019B01A8EDB3E0EEE2F3E05A
:102E500084E101900D928150E1F788819981AA81E6
:102E6000BB818093DC039093DD03A093DE03B093DA
:102E7000DF03F90180819181A281B3818093E8030E
:102E80009093E903A093EA03B093EB0388ED93E0FA
:102E90000E94BE16DF91CF910895CF93DF93EC018E
:102EA0009B01A8EDB3E0EEE2F3E084E101900D9226
:102EB0008150E1F788819981AA81BB818093E003E9
:102EC0009093E103A093E203B093E303F9018081BF
:102ED0009181A281B3818093E8039093E903A09349
:102EE000EA03B093EB0388ED93E00E94BE16DF91F6
:102EF000CF9108954F925F926F927F928F929F929F
:102F0000AF92BF92CF92DF92EF92FF920F931F93F7
:102F1000DF93CF93CDB7DEB7C056D0400FB6F8944D
:102F2000DEBF0FBECDBF8C01AB01DC018C918F32B7
:102F300009F41FC780E090E0A0E0B0E08093C403F4
:102F40009093C503A093C603B093C7038093C803AF
:102F50009093C903A093CA03B093CB038093CC038F
:102F60009093CD03A093CE03B093CF038093D0036F
:102F70009093D103A093D203B093D3038093D4034F
:102F80009093D503A093D603B093D7038CEE93E030
:102F9000B8010E94DF084091EC035091ED03CA0193
:102FA000880F892F881F990B91958170952F9170AB
:102FB00050FD03C0882309F468C0981749F0809138
:102FC0007C0282FF4FC08AE197E061E971E048C06E
:102FD000992309F45AC020E080E002C02E278F5FB9
:102FE000F801E80FF11DE081EA32C1F730E080918D
:102FF0002004909121048217930749F080917C026C
:1030000082FF30C08AE197E068EE71E029C041FF9D
:1030100007C08091F0039091F1038E36910529F15C
:103020008091260490912704A0912804B09129044E
:103030000196A11DB11D20912204309123044091DD
:10304000240450912504281739074A075B0769F0C3
:1030500080917C0282FF06C08AE197E068E072E01E
:103060000E94CE210E94E10784C6809122049091A3
:103070002304A0912404B091250480932604909306
:103080002704A0932804B09329042091EC033091E5
:10309000ED03C90183709074892B91F421153105DA
:1030A00079F080917D0290917E0297FD09C0909306
:1030B000EF038093EE0321603093ED032093EC0344
:1030C0008091EC0380FF0BC48091EE039091EF039D
:1030D00090937E0280937D02A4ECB3E0EEE2F3E0F5
:1030E00084E101900D928150E1F780917F02882365
:1030F00009F453C08091EC0383FF10C08091F80362
:103100009091F903A091FA03B091FB038093C4035B
:103110009093C503A093C603B093C7038091EC03BB
:1031200084FF10C08091FC039091FD03A091FE03E9
:10313000B091FF038093C8039093C903A093CA037F
:10314000B093CB038091EC0385FF10C08091000405
:1031500090910104A0910204B09103048093CC03E8
:103160009093CD03A093CE03B093CF038091EC0353
:103170009091ED0395FF8BC080910404909105041C
:10318000A0910604B09107048093D0039093D103DB
:10319000A093D203B093D3037AC08091EC0383FF52
:1031A0001AC06091C4037091C5038091C6039091C9
:1031B000C7032091F8033091F9034091FA0350912D
:1031C000FB030E94C6246093C4037093C5038093DD
:1031D000C6039093C7038091EC0384FF1AC06091EB
:1031E000C8037091C9038091CA039091CB032091C9
:1031F000FC033091FD034091FE035091FF030E94B8
:10320000C6246093C8037093C9038093CA03909344
:10321000CB038091EC0385FF1AC06091CC037091C1
:10322000CD038091CE039091CF0320910004309183
:10323000010440910204509103040E94C62460934B
:10324000CC037093CD038093CE039093CF038091F2
:10325000EC039091ED0395FF1AC06091D00370913B
:10326000D1038091D2039091D30320910404309133
:10327000050440910604509107040E94C6246093FF
:10328000D0037093D1038093D2039093D3038091A2
:10329000EC039091ED0391FF10C080911004909188
:1032A0001104A0911204B09113048093D40390935D
:1032B000D503A093D603B093D7038091EE039091EA
:1032C000EF038130910539F18C31910549F1892B5A
:1032D00009F01BC2E090D403F090D5030091D6030F
:1032E0001091D70380E090E8ABE3B5E48093D4037A
:1032F0009093D503A093D603B093D70384EC93E0C7
:103300000E94BE16E092D403F092D5030093D60338
:103310001093D7032EC584EC93E00E94BE1629C5F6
:103320000F2EF0E06F2EF0E07F2EFAE78F2EF4E400
:103330009F2EF02D60923E0370923F0380924003D7
:103340009092410360912E0370912F03809130037E
:103350009091310320E030E040EA50E40E94C5241F
:1033600069837A838B839C830F2EF0E0EF2EF0E845
:10337000FF2EFBE30F2FF5E41F2FF02DED82FE82D1
:103380000F831887CE010196BE016B5F7F4F0E94AD
:10339000F31660912E0370912F038091300390916A
:1033A000310320E030E04AE753E40E94C5246987F6
:1033B0007A878B879C87ED86FE860F87188BCE01D8
:1033C0000996BE01635F7F4F0E94F31620E030E054
:1033D00040E050E020932E0330932F0340933003BE
:1033E0005093310360923E0370923F0380924003FA
:1033F0009092410380E090E0A0E8BFE3898B9A8B34
:10340000AB8BBC8B6D8A7E8A8F8A988ECE0141965B
:10341000BE016B5E7F4F0E94F31660912E03709188
:103420002F03809130039091310320E030E040E29F
:1034300051E40E94C524698F7A8F8B8F9C8F6D8E8B
:103440007E8E8F8E98A2CE014996BE01635E7F4F1D
:103450000E94F31620E030E040E050E020932E037D
:1034600030932F0340933003509331036091320324
:1034700070913303809134039091350320E030E064
:1034800040EA50E40E94C52469A37AA38BA39CA3BD
:10349000EDA2FEA20FA318A7CE018196BE016B5D1F
:1034A0007F4F0E9420176091320370913303809107
:1034B00034039091350320E030E04AE753E40E9462
:1034C000C52469A77AA78BA79CA7EDA6FEA60FA780
:1034D00018ABCE018996BE01635D7F4F0E94201715
:1034E00080E090E0A0E0B0E080933203909333035B
:1034F000A0933403B093350360923E0370923F0370
:10350000809240039092410320E030E040E85FE386
:1035100029AB3AAB4BAB5CAB6DAA7EAA8FAA98AE37
:10352000CE01C196BE016B5C7F4F0E942017609157
:10353000320370913303809134039091350320E07E
:1035400030E040E251E40E94C52469AF7AAF8BAF0E
:103550009CAFFE01FD966082718282829382CE01D1
:10356000C996BF010E94201780E090E0A0E0B0E083
:103570008093320390933303A0933403B0933503C5
:103580000F2EF0E0AF2EF0E0BF2EF0EACF2EF1E4E8
:10359000DF2EF02DA0923E03B0923F03C092400375
:1035A000D092410311E4412E512C4C0E5D1E6091CE
:1035B000360370913703809138039091390320E0EE
:1035C00030E040E05FE30E94C524D2016D937D931B
:1035D0008D939C931397FE01EB5BFF4F0F2EF0E052
:1035E000EF2EF0E0FF2EF8E40F2FF2E41F2FF02D66
:1035F000E082F18202831383C201BF010E944D1752
:10360000B9E44B2E512C4C0E5D1E60913603709127
:103610003703809138039091390320E030E04AE786
:1036200053E40E94C524F2016083718382839383F3
:10363000FE01E35BFF4FE082F18202831383C2014C
:10364000BF010E944D1720E030E040E050E02093A1
:103650003603309337034093380350933903A092D5
:103660003E03B0923F03C0924003D0924103DE017B
:10367000AF5ABF4F20E030E040E85FE32D933D9329
:103680004D935C931397FE01EB5AFF4FA082B182DA
:10369000C282D382CD01BF010E944D178E01075A0D
:1036A0001F4F6091360370913703809138039091DA
:1036B000390320E030E040E050E40E94C524D80106
:1036C0006D937D938D939C931397FE01E35AFF4F67
:1036D000A082B182C282D382C801BF010E944D176D
:1036E00020E030E040E050E0209336033093370391
:1036F000409338035093390360923E0370923F0326
:10370000809240039092410334C390912A038091A8
:103710002903981709F018C3E0912A03F0E0EE0F8F
:10372000FF1FEF5DFC4F0190F081E02DE855FF4F4A
:103730008081882309F008C38091EE039091EF0304
:103740008531910509F467C0863191053CF48430D8
:10375000910589F0449709F0A8C024C08B359105E4
:1037600009F496C08C35910509F495C08A35910508
:1037700009F09BC089C06091F4037091F5038091BA
:10378000F6039091F70320E030E040E05FE30E9411
:10379000C6240E949625882777FD8095982F0E9441
:1037A0005D209DC0A1E2B3E02DE931E34FE753E492
:1037B0000F2EFEE9AF2EF0E6BF2EF5EACF2EF6E48F
:1037C000DF2EF02D0F2EFBE6EF2EFCE7FF2EFDE4A3
:1037D0000F2FF3E41F2FF02D60E070E080E89FE3EF
:1037E000ED91FD912083318342835383248335837C
:1037F00046835783A086B186C286D386E486F58643
:1038000006871787608B718B828B938BE3E0A932DD
:10381000BE0731F764C0A1E2B3E023E830EC40E238
:1038200051E40F2EF9E7AF2EF9E5BF2EF0E5CF2ECC
:10383000F4E4DF2EF02D0F2EF4EAEF2EF0E7FF2E4A
:10384000F1E00F2FF1E41F2FF02D60E070E080E831
:103850009FE3ED91FD912083318342835383248341
:10386000358346835783A086B186C286D386E48695
:10387000F58606871787608B718B828B938BF3E0BD
:10388000A932BF0731F72BC081E080937F0227C0A8
:1038900010927F0224C0AEE2B3E0E4ECF3E084E1F6
:1038A00001900D928150E1F71AC080917C0282FF55
:1038B00016C08AE197E066E372E00E949F21409182
:1038C000EE035091EF03662757FD6095762F8AE14E
:1038D00097E02AE030E00E94C1220E94E107809137
:1038E000EC0381FF0BC290912A0380912903981762
:1038F00009F031C2E0912A03F0E0EE0FFF1FEF5D07
:10390000FC4F0190F081E02DE855FF4F8081882326
:1039100009F021C28091F0039091F1038E36910558
:1039200009F4B3C08F369105E4F48936910509F4A2
:1039300058C08A36910544F4009709F4DFC18836EF
:10394000910509F0C1C12DC08B36910509F46BC0FA
:103950008B3691050CF45CC08D36910509F0B4C12D
:103960006FC08137910509F4DBC0823791054CF4B3
:103970008F36910509F4A8C08037910509F0A4C1DC
:103980000DC08E37910509F460C18F37910509F498
:103990007AC18237910509F097C10EC102E310E0A8
:1039A000A8C08091EC039091ED0392FFA7C1E09134
:1039B0008A02F0E0EE0FFF1FEA57FD4F00811181F0
:1039C000609114047091150480911604909117046D
:1039D0000E9496259B01AC01C801B9010E948B0C85
:1039E0008DC18AE197E06DE372E00E949F21E09132
:1039F0008A02F0E0EE0FFF1FEA57FD4F80819181B0
:103A00000E942F0DBC018AE197E00E949C2276C1A2
:103A1000E0918A02F0E0EE0FFF1FEA57FD4F808130
:103A200091816FEF0AC0E0918A02F0E0EE0FFF1F74
:103A3000EA57FD4F8081918160E00E94E50C5EC1F4
:103A4000E0918A02F0E0EE0FFF1FEA57FD4F008180
:103A50001181609114047091150480911604909165
:103A600017040E9496259B01AC01C801B9010E9470
:103A70008B0CE0918A02F0E0EE0FFF1FEA57FD4F3A
:103A8000808191810E94550D39C18091EC0387FF9F
:103A900035C18091220490912304A0912404B09117
:103AA00025048093260490932704A0932804B093C0
:103AB000290480917C0281FF21C18AE197E060E4C2
:103AC00072E00E94CE211AC1609114047091150415
:103AD00080911604909117040E949B2560937C02AC
:103AE0000DC10E94D10762E370E080E090E00E9487
:103AF0005D20015010402FEF0F3F120791F780918A
:103B0000290380932A0301E213E0D8018D919D914E
:103B10008D010E94CE06B3E009321B07B1F7EEC05B
:103B20008091EC039091ED03E0918A0292FF31C005
:103B3000F0E0EE0FFF1FEA57FD4F00811181609109
:103B4000140470911504809116049091170420E0DC
:103B500030E04FE753E40E947D2620E030E040E073
:103B60005FE30E94C6240E949625DC01CB012DE470
:103B7000F8012187B801665F7F4F4AE050E00E945C
:103B800096038FEE92E0D8016C91075F1F4FA8015A
:103B900010C0F0E0EE0FFF1FEA57FD4F0190F081DB
:103BA000E02D85E5818712868FEE92E0608139965F
:103BB000AF010E945F0CA2C08AE197E061E572E06C
:103BC0000E949F2140912E0350912F03609130035A
:103BD000709131038AE197E00E9453238AE197E0D4
:103BE00066E572E00E949F214091320350913303B9
:103BF00060913403709135038AE197E00E9453236A
:103C00008AE197E069E572E00E949F2140913603C6
:103C10005091370360913803709139038AE197E03E
:103C20000E9453238AE197E06CE572E00E949F2195
:103C300040913A0350913B0360913C0370913D03E6
:103C40008AE197E00E94572359C0E0918A02F0E090
:103C5000EE0FFF1FEA57FD4F008111816091F403C1
:103C60007091F5038091F6039091F70320E030E026
:103C700040E05FE30E94C6240E9496259B01AC01B0
:103C8000C80161E01DC0E0918A02F0E0EE0FFF1F65
:103C9000EA57FD4F008111816091F4037091F503A3
:103CA0008091F6039091F70320E030E040E05FE37D
:103CB0000E94C6240E9496259B01AC01C80160E0C9
:103CC000A9010E94000D1AC080917C0282FF16C0DB
:103CD0008AE197E06FE572E00E949F214091F00336
:103CE0005091F103662757FD6095762F8AE197E0A2
:103CF0002AE030E00E94C1220E94E1078091EC039B
:103D00009091ED0396FF35C090912A03809129038D
:103D1000981741F5E0912A03F0E0EE0FFF1FEF5DE9
:103D2000FC4F0190F081E02DE855FF4F8081882302
:103D3000C9F49091F203911191E080918A02981751
:103D4000C1F090938A0215C061E070E080E090E0DD
:103D50000E945D20DACC61E070E080E090E00E949B
:103D60005D20C1CD61E070E080E090E00E945D20C8
:103D7000CBCFC05ADF4F0FB6F894DEBF0FBECDBF1A
:103D8000CF91DF911F910F91FF90EF90DF90CF9037
:103D9000BF90AF909F908F907F906F905F904F906B
:103DA00008958AE197E00E949521882331F18AE104
:103DB00097E00E94902180937B020E94D10780911E
:103DC0007B028D3019F48AE080937B0290917B0214
:103DD00090329CF09B3319F481E08093C30380916F
:103DE000C303882351F48091C203E82FF0E0EE5B17
:103DF000FC4F90838F5F8093C2038091C20387FF43
:103E000004C01092C2031092C303E091C203EE23D8
:103E100009F440C080917B028A30E1F5F0E0EE5B6E
:103E2000FC4F108280917C0280FF0CC08AE197E0F9
:103E300066E672E00E949F218AE197E062E473E007
:103E40000E94CE216091C20382E493E070E00E9460
:103E50007A171092C2031092C30380918B028823B9
:103E600099F080917C0281FF0FC08AE197E06CE6B7
:103E700072E00E949F218AE197E06BE872E00E9465
:103E8000CE2110928B0208958AE197E060E772E0FC
:103E90000E94CE2108950E94D11E8FEE92E00E94D2
:103EA0007F0B0895EF92FF920F931F933FE6E32E4F
:103EB000F12CF70180818D7F80830E948005109214
:103EC0002D0310922C0380E061E00E94C12010922B
:103ED0008B0210922B038FEF9FEFAFEFBFEF80931A
:103EE000260490932704A0932804B09329048AE41D
:103EF00094E090938702809386028AE294E0909304
:103F000089028093880210928A02109229031092EB
:103F10002A038AE694E0909322038093210383E1AD
:103F200095E090932403809323038CEB95E090938A
:103F300026038093250385E696E0909328038093DB
:103F400027031092C2031092C3030AE117E0C801CD
:103F500040E05BE460E070E00E949A21C80163E702
:103F600072E00E94CE218EE061E00E94C1208EE0CE
:103F700060E00E94DF2060ED77E080E090E00E944A
:103F80005D208DE197E040E452E46FE070E00E9434
:103F90009A2168EE73E080E090E00E94FE05F70150
:103FA0008081826080831F910F91FF90EF90089530
:103FB0000E9487200E94521F0E944B1FFDCF1F921C
:103FC0000F920FB60F9211242F938F939F93AF935D
:103FD000BF9380910E0790910F07A0911007B091A9
:103FE00011070196A11DB11D80930E0790930F0735
:103FF000A0931007B09311078091120790911307B7
:10400000A0911407B09115078050904CAF4FBF4F4F
:104010008093120790931307A0931407B09315078A
:1040200027C08091120790911307A0911407B091B7
:10403000150780589E43A040B0408093120790938C
:104040001307A0931407B09315078091160790915A
:104050001707A0911807B09119070196A11DB11D6E
:104060008093160790931707A0931807B09319072A
:104070008091120790911307A0911407B091150732
:1040800081589E43A040B04060F6BF91AF919F9190
:104090008F912F910F900FBE0F901F9018958FB793
:1040A000F894209116073091170740911807509106
:1040B00019078FBFB901CA010895EF92FF920F93BC
:1040C0001F937B018C018FB7F89440911607509194
:1040D000170760911807709119078FBF2FB7F894D1
:1040E0008091160790911707A0911807B0911907B2
:1040F0002FBF841B950BA60BB70BE816F9060A0712
:104100001B0760F71F910F91FF90EF90089578942F
:1041100084B5826084BD84B5816084BD85B58260CC
:1041200085BD85B5816085BDEEE6F0E0808181606A
:104130008083E1E8F0E0808182608083808181601B
:104140008083E0E8F0E0808181608083E1EBF0E053
:10415000808184608083E0EBF0E0808181608083F7
:10416000EAE7F0E0808184608083808182608083E0
:104170008081816080838081806880831092C1000B
:104180000895282F30E0C90185559F4FFC01949177
:1041900025573F4FF9018491882381F0E82FF0E003
:1041A000E458FF4FE491F0E0662329F48081909574
:1041B0008923808308958081892B80830895482FE7
:1041C00050E0CA0185539F4FFC012491CA018555D7
:1041D0009F4FFC01949145575F4FFA01349133236F
:1041E000C1F1222331F1213019F484B58F7704C055
:1041F000223021F484B58F7D84BD1BC0233021F48F
:10420000809180008F7705C0243031F48091800048
:104210008F7D809380000DC0263021F48091B00006
:104220008F7705C0273029F48091B0008F7D80936F
:10423000B000E32FF0E0EF57FF4FE491F0E066238A
:1042400029F4808190958923808308958081892B2A
:1042500080830895482F50E0CA0185539F4FFC0189
:104260002491CA0185559F4FFC01949145575F4F9A
:10427000FA013491332319F420E030E035C02223D1
:1042800031F1213019F484B58F7704C0223021F444
:1042900084B58F7D84BD1BC0233021F480918000C4
:1042A0008F7705C0243031F4809180008F7D80931A
:1042B00080000DC0263021F48091B0008F7705C0BA
:1042C000273029F48091B0008F7D8093B000E32FD8
:1042D000F0E0EA57FF4FE491F0E0808120E030E029
:1042E000892311F021E030E0C901089584E892E0CB
:1042F00090931B0780931A0710921C0790931E0738
:1043000080931D0781E080931F070895FC0182813F
:104310000E94EA230895FC0182810E943D240895B1
:10432000FC0182810E9410240895FC0182810E9478
:10433000FA230895FC0182810E94622308950F935D
:104340001F93CF93DF938C01EB0109C02196D80115
:10435000ED91FC910190F081E02DC80109956881F3
:104360006623A1F7DF91CF911F910F9108950F93CD
:104370001F938C01DC01ED91FC910190F081E02D07
:104380006DE00995D801ED91FC910190F081E02D4F
:10439000C8016AE009951F910F9108950F931F932B
:1043A0008C010E949F21C8010E94B7211F910F918B
:1043B00008952F923F924F925F926F927F928F92C9
:1043C0009F92AF92BF92CF92DF92EF92FF920F93A4
:1043D0001F93DF93CF93CDB7DEB7A0970FB6F894B6
:1043E000DEBF0FBECDBF1C016A017B014115510527
:1043F0006105710549F4DC01ED91FC910190F081BA
:10440000E02D60E3099554C0882499245401422E7C
:1044100055246624772401E010E00C0F1D1F080DC1
:10442000191DC701B601A30192010E947727F80167
:1044300060830894811C911CA11CB11CC701B601AA
:10444000A30192010E947727C901DA016C017D0165
:10445000C114D104E104F104F1F681E0E82EF12C5D
:10446000EC0EFD1EE80CF91C3E010894611C711C49
:10447000D501C4010197A109B1096C01C818D90877
:1044800014C0F601EE0DFF1D60816A3010F4605D0E
:1044900001C0695CD101ED91FC910190F081E02DAA
:1044A000C10109950894E108F1086E147F0449F7E9
:1044B000A0960FB6F894DEBF0FBECDBFCF91DF91AF
:1044C0001F910F91FF90EF90DF90CF90BF90AF9032
:1044D0009F908F907F906F905F904F903F902F9024
:1044E00008952AE00E94D9210895EF92FF920F9338
:1044F0001F93CF93DF93EC017A018B0177FF0FC0FD
:10450000E881F9810190F081E02D6DE20995109527
:104510000095F094E094E11CF11C011D111DCE01E9
:10452000B801A7012AE00E94D921DF91CF911F9104
:104530000F91FF90EF9008950F931F938C01AB01A3
:10454000662757FD6095762F0E947522C8010E944C
:10455000B7211F910F910895DC012115310541F418
:10456000ED91FC910190F081E02D642F0995089563
:104570002A30310519F40E94752208950E94D9212C
:1045800008950F931F938C010E94AC22C8010E94D2
:10459000B7211F910F9108959F92AF92BF92CF9232
:1045A000DF92EF92FF920F931F93CF93DF93EC0173
:1045B0007A018B01922ECB01BA0120E030E040E07D
:1045C00050E00E942A25882364F4E881F981019053
:1045D000F081E02DCE016DE2099517FB109517F9DA
:1045E000109520E030E040E05FE3AA240BC0CA0150
:1045F000B90120E030E040E251E40E942E259B0109
:10460000AC01A394A91498F3C801B7010E94C62471
:104610005B016C010E949B257B018C01CE01B801DE
:10462000A7010E947122992029F0CE0169E772E06A
:104630000E949F21C801B7010E94C7259B01AC01C0
:10464000C601B5010E94C52420C020E030E040E250
:1046500051E40E947D267B018C010E9496255B011E
:104660006C01CC24B7FCC094DC2CCE01B601A501B2
:104670000E947522C601B5010E94C9259B01AC01AB
:10468000C801B7010E94C5249A949920F1F6DF91E0
:10469000CF911F910F91FF90EF90DF90CF90BF903F
:1046A000AF909F90089522E00E94CC2208950F932E
:1046B0001F938C010E945323C8010E94B7211F91B0
:1046C0000F910895EF92FF920F931F937A018B0140
:1046D0008823F1F5CB01BA0122E030E040E050E060
:1046E0000E949927205C3D4B404F5F4FCA01B901A2
:1046F000A80197010E949927C901DA010197A10930
:10470000B109292F3A2F4B2F552747FD5A9501966E
:10471000A11DB11D2093C50081508093C40010924B
:10472000C0001092C1001092C2008091C10080614F
:104730008093C1008091C10088608093C100809106
:10474000C10080688093C10086E08093C2003DC0B4
:10475000CB01BA0122E030E040E050E00E9499270E
:10476000205C3D4B404F5F4FCA01B901A801970142
:104770000E949927C901DA010197A109B109292FDE
:104780003A2F4B2F552747FD5A950196A11DB11D74
:104790002093CD0081508093CC001092C8001092DD
:1047A000C9001092CA008091C90080618093C9003D
:1047B0008091C90088608093C9008091C900806899
:1047C0008093C90086E08093CA001F910F91FF90EB
:1047D000EF900895882339F48091C00085FFFCCFC5
:1047E0006093C60008958091C80085FFFCCF609358
:1047F000CE000895E82FF0E0EE0FFF1FDF01A05E6E
:10480000B84F8D919C9180589F4FEC5DF84F20815F
:104810003181821B930B60E870E00E946427089549
:10482000CF93DF93A82FB0E0FD01EE0FFF1FEF0144
:10483000CC5DD84F48815981E05EF84F80819181ED
:104840008417950719F42FEF3FEF13C0B695BA2FD1
:10485000AA27B795A795A40FB51FA85DB84F2C91AF
:10486000CA01019660E870E00E94642799838883FA
:1048700030E0C901DF91CF910895E82FF0E0EE0F0D
:10488000FF1FDF01AC5DB84F8D919C91E05EF84F4A
:104890009183808308951F920F920FB60F92112477
:1048A0002F933F934F935F936F937F938F939F9338
:1048B000AF93BF93EF93FF934091C600E091200721
:1048C000F0912107CF01019660E870E00E94642713
:1048D0009C0180912407909125072817390739F00A
:1048E000E85DF84F40833093210720932007FF9124
:1048F000EF91BF91AF919F918F917F916F915F9158
:104900004F913F912F910F900FBE0F901F901895D0
:104910001F920F920FB60F9211242F933F934F9334
:104920005F936F937F938F939F93AF93BF93EF9317
:10493000FF934091CE00E0912207F0912307CF0131
:10494000019660E870E00E9464279C018091260730
:10495000909127072817390739F0E855F84F408319
:104960003093230720932207FF91EF91BF91AF91DE
:104970009F918F917F916F915F914F913F912F9177
:104980000F900FBE0F901F9018955058BB27AA2765
:104990000ED075C166D130F06BD120F031F49F3F5D
:1049A00011F41EF45BC10EF4E095E7FB51C1E92F51
:1049B00077D180F3BA17620773078407950718F059
:1049C00071F49EF58FC10EF4E0950B2EBA2FA02D39
:1049D0000B01B90190010C01CA01A0011124FF27AC
:1049E000591B99F0593F50F4503E68F11A16F040A7
:1049F000A22F232F342F4427585FF3CF46953795A6
:104A00002795A795F0405395C9F77EF41F16BA0B6A
:104A1000620B730B840BBAF09150A1F0FF0FBB1F18
:104A2000661F771F881FC2F70EC0BA0F621F731F61
:104A3000841F48F4879577956795B795F7959E3FBE
:104A400008F0B3CF9395880F08F09927EE0F97954C
:104A500087950895D9D008F481E008950CD00FC14E
:104A600007D140F0FED030F021F45F3F19F0F0C0E4
:104A7000511139C1F3C014D198F39923C9F35523C7
:104A8000B1F3951B550BBB27AA2762177307840741
:104A900038F09F5F5F4F220F331F441FAA1FA9F3F7
:104AA00033D00E2E3AF0E0E830D091505040E695E9
:104AB000001CCAF729D0FE2F27D0660F771F881F4A
:104AC000BB1F261737074807AB07B0E809F0BB0B39
:104AD000802DBF01FF2793585F4F2AF09E3F51055D
:104AE00068F0B6C000C15F3FECF3983EDCF38695FA
:104AF00077956795B795F7959F5FC9F7880F911DD3
:104B00009695879597F90895E1E0660F771F881FBE
:104B1000BB1F621773078407BA0720F0621B730B71
:104B2000840BBA0BEE1F88F7E095089504D06894C3
:104B3000B111D9C00895BCD088F09F5790F0B92F1B
:104B40009927B751A0F0D1F0660F771F881F991FE2
:104B50001AF0BA95C9F712C0B13081F0C3D0B1E0F4
:104B60000895C0C0672F782F8827B85F39F0B93F04
:104B7000CCF3869577956795B395D9F73EF49095E4
:104B80008095709561957F4F8F4F9F4F0895E89462
:104B900009C097FB3EF490958095709561957F4F85
:104BA0008F4F9F4F9923A9F0F92F96E9BB27939533
:104BB000F695879577956795B795F111F8CFFAF443
:104BC000BB0F11F460FF1BC06F5F7F4F8F4F9F4F74
:104BD00016C0882311F096E911C0772321F09EE8D2
:104BE000872F762F05C0662371F096E8862F70E038
:104BF00060E02AF09A95660F771F881FDAF7880F12
:104C00009695879597F90895990F0008550FAA0B67
:104C1000E0E8FEEF16161706E807F907C0F01216CF
:104C20001306E407F50798F0621B730B840B950BD2
:104C300039F40A2661F0232B242B252B21F4089527
:104C40000A2609F4A140A6958FEF811D811D0895C4
:104C500097F99F6780E870E060E008959FEF80EC2F
:104C6000089500240A9416161706180609060895D2
:104C700000240A9412161306140605060895092E38
:104C80000394000C11F4882352F0BB0F40F4BF2BA7
:104C900011F460FF04C06F5F7F4F8F4F9F4F0895E7
:104CA00057FD9058440F551F59F05F3F71F04795DD
:104CB000880F97FB991F61F09F3F79F087950895C2
:104CC000121613061406551FF2CF4695F1DF08C0E1
:104CD000161617061806991FF1CF869571056105FE
:104CE00008940895E894BB2766277727CB0197F9A6
:104CF00008958ADF08F48FEF08950BD0C0CFB1DF9D
:104D000028F0B6DF18F0952309F0A2CFA7CF112421
:104D1000EACFC6DFA0F3959FD1F3950F50E0551F62
:104D2000629FF001729FBB27F00DB11D639FAA2700
:104D3000F00DB11DAA1F649F6627B00DA11D661F4F
:104D4000829F2227B00DA11D621F739FB00DA11D70
:104D5000621F839FA00D611D221F749F3327A00D2A
:104D6000611D231F849F600D211D822F762F6A2FC6
:104D700011249F5750408AF0E1F088234AF0EE0F4B
:104D8000FF1FBB1F661F771F881F91505040A9F758
:104D90009E3F510570F05CCFA6CF5F3FECF3983E8D
:104DA000DCF3869577956795B795F795E7959F5FBF
:104DB000C1F7FE2B880F911D9695879597F9089559
:104DC00011F40EF44BCF4AC073DFD0F39923D9F31B
:104DD000CEF39F57550B87FF51D056959795B0E06E
:104DE00020F4660F771F881FBB1F1F930F930024AB
:104DF0009001A0018001F001A0E80E0F1F1F0A1E04
:104E0000511D601B710B8009B50B48F4600F711FB9
:104E1000801DB51F0E1B1F0B0A0A510907C02E0F5C
:104E20003F1F4A1F0E0F1F1F0A1E511D660F771FBF
:104E3000881FBB1FA695F795E795F8F60617170785
:104E400008065B07211D311D411D0F911F91B901FE
:104E5000842F9158880F9695879508959F3F49F024
:104E6000915028F4869577956795B7959F5F803820
:104E70009F4F880F9695879597F9089591505040C8
:104E8000660F771F881FD2F70895629FD001739F26
:104E9000F001829FE00DF11D649FE00DF11D929FD6
:104EA000F00D839FF00D749FF00D659FF00D992715
:104EB000729FB00DE11DF91F639FB00DE11DF91F39
:104EC000BD01CF011124089597FB092E07260AD0B2
:104ED00077FD04D049D006D000201AF47095619572
:104EE0007F4F0895F6F7909581959F4F0895A1E221
:104EF0001A2EAA1BBB1BFD010DC0AA1FBB1FEE1F54
:104F0000FF1FA217B307E407F50720F0A21BB30B9E
:104F1000E40BF50B661F771F881F991F1A9469F71A
:104F200060957095809590959B01AC01BD01CF0176
:104F3000089597FB092E05260ED057FD04D0D7DF24
:104F40000AD0001C38F450954095309521953F4F7C
:104F50004F4F5F4F0895F6F7909580957095619546
:104F60007F4F8F4F9F4F0895AA1BBB1B51E107C076
:104F7000AA1FBB1FA617B70710F0A61BB70B881FE9
:104F8000991F5A95A9F780959095BC01CD01089578
:104F9000EE0FFF1F0590F491E02D0994911106C0CA
:104FA000803219F089508550D0F7089599278827C5
:104FB00008952F923F924F925F926F927F928F92BD
:104FC0009F92AF92BF92CF92DF92EF92FF920F9398
:104FD0001F93CF93DF93CDB7DEB7CA1BDB0B0FB6A2
:104FE000F894DEBF0FBECDBF09942A88398848885F
:104FF0005F846E847D848C849B84AA84B984C884F5
:10500000DF80EE80FD800C811B81AA81B981CE0FEB
:10501000D11D0FB6F894DEBF0FBECDBFED010895D0
:04502000F894FFCF32
:10502400526573656E643A000000000000000000E1
:10503400000000000000000000000000000000006C
:10504400000000000000000000000000000000005C
:10505400000000000000000000000000000000004C
:10506400000000000000000000000000000000003C
:10507400000000000000000000000000000000002C
:105084000000000045420045410045390045380014
:105094004537004536004535004534004533004565
:1050A40032004531004544200045432000453A2064
:1050B4000053657269616C204572726F723A526571
:1050C4006369657665642061204C696E654E722063
:1050D400636F646520776974686F75742061204319
:1050E4006865636B73756D20636F6465206F7220F0
:1050F400436865636B73756D20776974686F757445
:10510400204C696E654E720053657269616C20456E
:1051140072726F723A20636865636B73756D206D8C
:1051240069736D617463680053657269616C2045CD
:1051340072726F723A204C696E654E7220697320E8
:105144006E6F7420746865206C617374206C696E72
:10515400654E722B31006875683F204700543A0051
:1051640044454255473A4C696E654E7220736574E6
:1051740000433A205800205900205A002045004896
:1051840075683F204D004563686F3A006F6B2000DF
:105194006F6B007374617274002E003F06FFFF0191
:0651A4000000000086215E
:00000001FF
