:100000000C9463000C948B000C948B000C948B006C
:100010000C948B000C948B000C948B000C948B0034
:100020000C948B000C948B000C948B000C948B0024
:100030000C948B000C948B000C948B000C948B0014
:100040000C945A060C948B000C941D080C948B0095
:100050000C948B000C948B000C948B000C948B00F4
:100060000C948B000C948B000000000024002700EF
:100070002A0000000000250028002B0000000000DE
:1000800023002600290004040404040404040202DA
:100090000202020203030303030301020408102007
:1000A0004080010204081020010204081020000012
:1000B0000007000201000003040600000000000029
:1000C00000009D03A20911241FBECFEFD4E0DEBFC4
:1000D000CDBF11E0A0E0B1E0EAE4FAE102C0059092
:1000E0000D92AC35B107D9F712E0ACE5B1E001C033
:1000F0001D92A637B107E1F710E0C6ECD0E004C0CE
:100100002297FE010E941F0DC23CD107C9F70E9431
:1001100053060C94230D0C940000FC0188279927AA
:10012000E89421912032E9F3293010F02E30C8F301
:100130002B3241F02D3239F4689404C00E94CC0077
:10014000820F911D219120532A30C0F31EF4909507
:1001500081959F4F0895FB019F01E8944230C4F0C0
:100160004532B4F44A3029F497FB1EF490958195FA
:100170009F4F642F77270E94090D805D8A330CF012
:10018000895D8193CB010097A1F716F45DE251934D
:100190001082C9010C94D4007AE0979F902D879F1C
:1001A000802D910D11240895DC01FC01672F7191C0
:1001B0007723E1F7329704C07C916D93708362914D
:1001C000AE17BF07C8F308952F923F924F925F92E8
:1001D0006F927F928F929F92AF92BF92CF92DF9257
:1001E000EF92FF920F931F93CF93DF93EC016884FC
:1001F00079848A859B85681A790A2BA43CA44DA42E
:100200005EA4B301882777FD8095982F29AD3AAD7C
:100210004BAD5CAD620F731F841F951F69AF7AAF42
:100220008BAF9CAF0E94830B7B018C01CF5BDF4FB8
:10023000A880B980CA80DB80C154D040A601950156
:100240000E944C0B882374F0ED96A880B980CA8078
:10025000DB80ED97C801B701A60195010E94330C20
:1002600018161CF4C601B50102C0C801B7010E94EE
:10027000500B69AF7AAF8BAF9CAF0E94830B2FA559
:1002800038A949A95AA90E94370C4B015C010A857B
:100290001B858FA998ADB801681B790B882777FD5E
:1002A0008095982F0E94830B2BA93CA94DA95EA98C
:1002B0000E94370C6B017C0118AF0FABB30188278C
:1002C00077FD8095982F0E94830B9B01AC01C201A2
:1002D000B1010E94370CA50194010E94E80AA70110
:1002E00096010E94E70A0E94500BCB016F3F7105F7
:1002F00019F014F08FEF90E097FF02C080E090E0DB
:10030000DF91CF911F910F91FF90EF90DF90CF90F1
:10031000BF90AF909F908F907F906F905F904F9025
:100320003F902F900895FB01428181E08283DB01A1
:1003300020E030E005C0992787FD9095280F391FF0
:100340008D918823C1F7215030402F733070822F58
:10035000805D828390E0481709F491E0892F089529
:10036000CF93DF93DC018AE255968C93559756968E
:100370008C93569757968C93579758966C9358979B
:1003800080E359968C9359975B964C935B97ED015C
:1003900080E090E001C0EB8F482F495FF901E80F42
:1003A000F91FE081EE2329F0019621968A3091050C
:1003B00091F7C42FD0E0FD01EC0FFD1F158A81E0FD
:1003C0005A968C935A97FD01789620E030E005C04C
:1003D000992787FD9095280F391F81918823C1F7B0
:1003E000215030402F733070822F805D5A968C934D
:1003F0005A97CA0FDB1F84E28D8B4F5FA40FB11D8C
:1004000055961C92DF91CF9108950F931F938C0105
:100410000E94A206E0E0D8019E962D913D914D915B
:100420005C91D197621B730B840B950B613C71053A
:100430008105910508F0E1E08E2F1F910F9108953D
:10044000CF93DF93EC018CA59DA5892B11F480E05F
:100450001CC080E161E00E9481071DA61CA68EE001
:1004600090E00197F1F704C083E692E00E946709EB
:1004700083E692E00E9453098823B1F70E94A20606
:100480006EA77FA788AB99AB81E0DF91CF910895EC
:10049000CF93DF93EC018CA59DA5892B19F08AA53C
:1004A000882321F080E0DF91CF910895CE010E9452
:1004B000B001CE010E94200281E0F5CFCF93DF93FF
:1004C000EC018AA5882311F080E013C080E160E090
:1004D0000E94810782E090E09DA78CA78EE090E0CB
:1004E0000197F1F70E94A2066EA77FA788AB99AB90
:1004F00081E0DF91CF910895FC01158A11A6108249
:10050000148A12A613A60E945E020895882341F061
:1005100061E08091D501681B6093D5018DE002C038
:100520008DE060E00E94810708950F931F938C0176
:10053000FC0173AB62AB84E061E00E94610780E183
:1005400061E00E94610784E060E00E948107C801C9
:100550000E947C021F910F910895CF93DF9383E057
:100560000E94EA06AC01E4E0F1E0C1E0D0E0608185
:100570007181461757075CF5FE013197EE0FFF1F9B
:10058000EE0FFF1FDF01A050BF4F2D913C91EE5F9A
:10059000FE4F0190F081E02D421B530BCC0FDD1F6D
:1005A000CC0FDD1FCE5FDE4F888199818E1B9F0BA4
:1005B000621B730B9C01429FC001439F900D529F91
:1005C000900D11240E94B90C6E0F7F1F0FC09E0169
:1005D0002F5F21963496C431D10549F6243111F0AC
:1005E000BA0104C060914E0170914F0177FF02C0C3
:1005F00060E070E06F3F710519F014F06FEF70E08C
:10060000CB01DF91CF91089585E060E070E00E941A
:10061000080786E060E070E00E94080708950F93E5
:100620001F938C0187E061E00E94610785E061E033
:100630000E94610788E061E00E94610786E061E056
:100640000E9461078FE061E00E9461078BE061E03A
:100650000E9461078CE061E00E9461078AE060E02F
:100660000E94610789E060E00E94610780E060E02D
:100670000E94610783E060E00E946107C8010E9458
:10068000040380E090E0A0EAB0E4F80183A794A717
:10069000A5A7B6A78DEC9CECACECBDE387A790AB0F
:1006A000A1ABB2AB80E090E0A8ECB2E483AB94AB3A
:1006B000A5ABB6AB11AE12AE13AE14AE10AE17AA08
:1006C0000F5B1F4F80E090E8A9E8B4ECF80180834D
:1006D0009183A283B38380E090E8A9E8B4E4B29365
:1006E000A293929382938F010D531040F80114A2AC
:1006F00013A216A215A20E94A20626E0969587953F
:10070000779567952A95D1F7F80167A370A781A718
:1007100092A7108291E096878CE8818311861086DB
:100720001386128615861486178212821582148209
:10073000138296831F910F9108950F931F930CE5D9
:1007400011E0C8010E940F0381EA91E0B8010E9404
:1007500095021F910F910895CF93DF93EC010E94B2
:10076000AD029B878A870E94A20646E096958795F0
:10077000779567954A95D1F72FA138A5AB01421B14
:10078000530B6FA378A789A79AA7141615064CF4E4
:10079000CE01BA010E94E400682F8CE070E00E9454
:1007A0000807DF91CF9108950F931F93CF93DF93A5
:1007B000EC011D861C860C811D8180E00E94EA06EA
:1007C0009C013595279535952795200F311F3D8341
:1007D0002C838B818F5F8B838A3048F0C9016AE05C
:1007E00070E00E94B90C6A831B821D821C82CE01BC
:1007F0000E94AC03DF91CF911F910F9108950F9349
:100800001F93CF93DF93EC018E81882311F00A812F
:1008100001C00981613019F0623041F403C0888160
:100820008F5F02C08881815088830AC089E00E945E
:10083000CE072881892B11F02F5F01C0215028831A
:100840008881877088838330D1F1843038F4813097
:1008500009F457C0823008F043C069C08530D9F030
:10086000853030F1863081F0873009F072C010E0B9
:10087000C8019595879593E0159507959A95E1F7A9
:10088000080F87E061E049C087E061E00E948107CE
:1008900088E061E02BC010E0C80195958795A3E042
:1008A00015950795AA95E1F7080F87E061E013C059
:1008B00087E061E00E94810788E060E03EC010E0D0
:1008C000C80195958795E3E015950795EA95E1F7B9
:1008D000080F87E060E00E94810788E060E021C0A7
:1008E00087E060E00E94810788E060E00E94810765
:1008F00085E0602F70E00E94080786E060E070E00D
:1009000026C010E0C8019595879563E01595079579
:100910006A95E1F7080F87E060E00E94810788E0B0
:1009200061E00E94810785E0602F70E00BC087E0E6
:1009300060E00E94810788E061E00E94810785E015
:1009400060E070E00E94080786E0602F70E00E947F
:100950000807DF91CF911F910F9108950F931F9377
:100960008C0181E0F8018683C80161E00E94FF03E9
:10097000C80162E00E94FF031F910F9108950F9339
:100980001F938C01FC016183168261E00E94FF03CA
:10099000C80162E00E94FF031F910F910895CF9359
:1009A000DF93EC01FB011F868081833509F454C07D
:1009B000843584F4863434F484340CF04DC08334AC
:1009C000B1F418C0803509F447C0823571F18D3417
:1009D00071F436C088353CF48635F4F58435A1F0E1
:1009E000853529F436C08536E1F08437A1F060E022
:1009F00070E035C0CB0101960E948D00682F8BE01E
:100A000070E00E94080728C0CB0101960E948D006B
:100A10009987888721C0BE01615F7F4F8A859B854A
:100A20000AC0CE010E94040317C080E00E94EA06BB
:100A3000BE01615F7F4F4AE050E00E94AB000CC0F6
:100A4000CB0101960E948D00BC01CE010E94BF0423
:100A500003C0CE010E94AE04BE01615F7F4FCB0197
:100A6000DF91CF9108950F931F93DF93CF930F9250
:100A7000CDB7DEB78C01FC018081803329F0108274
:100A8000148A12A613A627C0C801B8010E949301B8
:100A9000882381F0B8016C5F7F4FF80182A993A988
:100AA0000E94CF049C01009729F0C801F8016181E0
:100AB00041E408C01982C801F801618141E29E0148
:100AC0002F5F3F4F0E944802F8011082148A12A63D
:100AD00013A681E083A70F90CF91DF911F910F9113
:100AE00008951F93CF93DF93EC018CA59DA58130D2
:100AF000910509F44CC0823091051CF4892B49F012
:100B000099C08230910509F445C0039709F092C05D
:100B10008AC083E692E00E945309882389F083E625
:100B200092E00E946709182F0E94A2066EA77FA775
:100B300088AB99AB81E00E948602143269F408C048
:100B4000CE010E940502882339F081E090E068C060
:100B5000CE010E947C026EC089A5FE01E80FF11D46
:100B60004589442309F466C0552747FD5095652FF4
:100B7000752F83E692E020E030E00E94D20A89A53A
:100B80008F5F89A789A58431D0F119A638C01D8A45
:100B900019A649C083E692E00E9453098823B1F167
:100BA00081E00E94860283E692E00E946709982F06
:100BB000843231F08A3289F41C8A81E08AA71FC00E
:100BC0008AA58823E1F01AA68C89FE01E80FF11DA1
:100BD0001082CE010E94330512C08AA5882379F0C5
:100BE0008C89FE01E80FF11D90838C898F5F8C8BBF
:100BF0008C89843120F018821C8A1AA61BA60E94B8
:100C0000A2066EA77FA788AB99AB14C08AA58823DC
:100C100089F0CE010E940502882361F083E090E014
:100C20009DA78CA707C018821C8A1AA61BA6CE01F6
:100C30000E945E02DF91CF911F910895CF93DF93C1
:100C4000EC018AE00E94CE07982F8F81981729F037
:100C50009F83CE0160E00E94FF038C859D850196F5
:100C60009D878C87895893411CF0CE010E94D40344
:100C7000DF91CF91089581EA91E00E9471058CE5A2
:100C800091E00E941E0608958DE061E00E946107D8
:100C900083E692E040E452E46FE070E00E945A087C
:100CA0001092D50108950E94B0060E9444060E9449
:100CB0003B06FDCF1F920F920FB60F9211242F9378
:100CC0003F938F939F93AF93BF938091DA0190915D
:100CD000DB01A091DC01B091DD013091DE010196D4
:100CE000A11DB11D232F2D5F2D3720F02D5701960B
:100CF000A11DB11D2093DE018093DA019093DB01E9
:100D0000A093DC01B093DD018091D6019091D701D1
:100D1000A091D801B091D9010196A11DB11D809378
:100D2000D6019093D701A093D801B093D901BF9178
:100D3000AF919F918F913F912F910F900FBE0F9088
:100D40001F9018958FB7F8942091DA013091DB014C
:100D50004091DC015091DD018FBFB901CA010895B6
:100D6000789484B5826084BD84B5816084BD85B586
:100D7000826085BD85B5816085BDEEE6F0E080814D
:100D800081608083E1E8F0E08081826080838081FF
:100D900081608083E0E8F0E0808181608083E1EB26
:100DA000F0E0808184608083E0EBF0E0808181600E
:100DB0008083EAE7F0E080818460808380818260C4
:100DC00080838081816080838081806880831092AD
:100DD000C10008958F70909150019295990F990FCD
:100DE000907C982B90937C0080917A008064809313
:100DF0007A0080917A0086FDFCCF209178004091A6
:100E00007900942F80E030E0282B392BC901089518
:100E10001F93CF93DF93182FEB0161E00E946107CE
:100E2000E12FF0E0E255FF4F8491833051F480913F
:100E30008000806880938000D0938900C0938800F0
:100E40003CC0843051F480918000806280938000A7
:100E5000D0938B00C0938A0030C0813039F4209742
:100E600029F184B5806884BDC7BD27C0823039F4BC
:100E70002097E1F084B5806284BDC8BD1EC0863075
:100E800041F48091B00080688093B000C093B300BB
:100E900014C0873041F48091B00080628093B0002C
:100EA000C093B4000AC0C038D1051CF4812F60E0A3
:100EB00002C0812F61E00E948107DF91CF911F91D5
:100EC0000895282F30E0C90186569F4FFC01949168
:100ED0002A573F4FF9018491882391F0E82FF0E0E1
:100EE000EE0FFF1FE859FF4FA591B491662329F437
:100EF0008C91909589238C9308958C91892B8C9358
:100F00000895482F50E0CA0182559F4FFC0124915B
:100F1000CA0186569F4FFC0194914A575F4FFA01D0
:100F200034913323D1F1222331F1233021F4809104
:100F300080008F7705C0243031F4809180008F7D50
:100F40008093800018C0213019F484B58F7704C0D5
:100F5000223021F484B58F7D84BD0DC0263021F46C
:100F60008091B0008F7705C0273029F48091B000C0
:100F70008F7D8093B000E32FF0E0EE0FFF1FEE585F
:100F8000FF4FA591B491662329F48C919095892304
:100F90008C9308958C91892B8C930895682F70E021
:100FA000CB0182559F4FFC012491CB0186569F4F68
:100FB000FC0144916A577F4FFB019491992319F4E6
:100FC00020E030E038C0222331F1233021F4809139
:100FD00080008F7705C0243031F4809180008F7DB0
:100FE0008093800018C0213019F484B58F7704C035
:100FF000223021F484B58F7D84BD0DC0263021F4CC
:101000008091B0008F7705C0273029F48091B0001F
:101010008F7D8093B000892F90E0880F991F8458AE
:101020009F4FFC01A591B4918C9120E030E0842386
:1010300011F021E030E0C90108951F920F920FB620
:101040000F9211242F933F934F935F936F937F934E
:101050008F939F93AF93BF93EF93FF934091C600FD
:10106000E0915F02F0916002CF01019660E870E0CC
:101070000E94B90C9C018091610290916202281734
:10108000390739F0E152FE4F4083309360022093DC
:101090005F02FF91EF91BF91AF919F918F917F91EF
:1010A0006F915F914F913F912F910F900FBE0F90D5
:1010B0001F9018955F926F927F928F929F92AF923E
:1010C000BF92CF92DF92EF92FF920F931F93CF9335
:1010D000DF93EC013A014B01413482E458078FE081
:1010E000680780E078070CF07FC060E874E88EE164
:1010F00090E0A40193010E94EE0C2150304040404A
:101100005040CA01B90122E030E040E050E00E94C6
:10111000EE0C59016A01A601950120953095409584
:10112000509594E0220F331F441F551F9A95D1F715
:1011300060E074E284EF90E00E94EE0CCA01B90115
:101140002FEF30E040E050E00E949A0CA4019301A0
:101150000E94EE0CC90181509F4F181619061CF40D
:10116000522E5A9403C055245394521A60E079E0E9
:101170008DE390E0A40193010E94EE0C21503040D9
:1011800040405040CA01B90122E030E040E050E068
:101190000E94EE0C209530954095509583E0220FEB
:1011A000331F441F551F8A95D1F760E074E284EF26
:1011B00090E00E94EE0CCA01B9012FEF30E040E050
:1011C00050E00E949A0CA40193010E94EE0CC90108
:1011D00081509F4F181619061CF4822F815002C0AF
:1011E00081E0821B851500F5E885F98581E090E0B6
:1011F0000A8802C0880F991F0A94E2F7808360E092
:1012000079E08DE390E0A40193010E94EE0C21505F
:10121000304040405040CA01B90122E030E040E097
:1012200050E00E94EE0C04C0E885F985108295011B
:10123000EC81FD813083EE81FF812083EA85FB858F
:10124000208141E050E0CA010E8402C0880F991F3E
:101250000A94E2F7282B2083EA85FB852081CA01C6
:101260000F8402C0880F991F0A94E2F7282B20836D
:10127000EA85FB858081088802C0440F551F0A94C7
:10128000E2F7842B8083DF91CF911F910F91FF9024
:10129000EF90DF90CF90BF90AF909F908F907F9016
:1012A0006F905F900895DC011296ED91FC91139779
:1012B000E058FF4F8191919180589F4F208131815B
:1012C000821B930B60E870E00E94B90C0895CF93E5
:1012D000DF93DC011296ED91FC911397EF01CE574D
:1012E000DF4F48815981E058FF4F80819181E0585C
:1012F000F0408417950719F42FEF3FEF0CC0E40F6F
:10130000F51F2081CA01019660E870E00E94B90CC7
:101310009983888330E0C901DF91CF910895FC0162
:10132000A085B18521898C9190E0022E02C095950F
:1013300087950A94E2F780FFF6CF0484F585E02DC7
:101340006083089585E591E0909364028093630241
:101350008FED91E0909366028093650285EC90E0BA
:10136000909368028093670284EC90E090936A0205
:101370008093690280EC90E090936C0280936B0202
:1013800081EC90E090936E0280936D0286EC90E089
:101390009093700280936F0284E08093710283E0E7
:1013A0008093720287E08093730285E080937402D9
:1013B00081E08093750208950F931F93CF93DF937D
:1013C0008C01EB0109C02196D801ED91FC910190AF
:1013D000F081E02DC801099568816623A1F7DF91AE
:1013E000CF911F910F910895EF92FF920F931F934A
:1013F000CF93DF938C017B01EA010CC0D7016D9183
:101400007D01D801ED91FC910190F081E02DC801A2
:1014100009952197209791F7DF91CF911F910F9117
:10142000FF90EF9008952F923F924F925F926F92AC
:101430007F928F929F92AF92BF92CF92DF92EF9264
:10144000FF920F931F93DF93CF93CDB7DEB7A09793
:101450000FB6F894DEBF0FBECDBF1C016A017B0141
:10146000411551056105710549F4DC01ED91FC91CF
:101470000190F081E02D60E3099554C088249924FF
:101480005401422E55246624772401E010E00C0F0D
:101490001D1F080D191DC701B601A30192010E946D
:1014A000CC0CF80160830894811C911CA11CB11C18
:1014B000C701B601A30192010E94CC0CC901DA0157
:1014C0006C017D01C114D104E104F104F1F681E065
:1014D000E82EF12CEC0EFD1EE80CF91C3E010894E0
:1014E000611C711CD501C4010197A109B1096C01EE
:1014F000C818D90814C0F601EE0DFF1D60816A30CE
:1015000010F4605D01C0695CD101ED91FC91019026
:10151000F081E02DC10109950894E108F1086E14ED
:101520007F0449F7A0960FB6F894DEBF0FBECDBF7B
:10153000CF91DF911F910F91FF90EF90DF90CF90AF
:10154000BF90AF909F908F907F906F905F904F90E3
:101550003F902F900895EF92FF920F931F93CF9398
:10156000DF93EC017A018B0177FF0FC0E881F981ED
:101570000190F081E02D6DE2099510950095F094B1
:10158000E094E11CF11C011D111DCE01B801A70161
:101590002AE00E94130ADF91CF911F910F91FF90D3
:1015A000EF900895DC012115310541F4ED91FC9196
:1015B0000190F081E02D642F099508952A303105BE
:1015C00019F40E94AB0A08950E94130A0895505816
:1015D000BB27AA270ED00DC1FED030F003D120F0DA
:1015E00031F49F3F11F41EF4F3C00EF4E095E7FBD5
:1015F000E9C0E92F0FD180F3BA1762077307840798
:10160000950718F071F49EF527C10EF4E0950B2EA6
:10161000BA2FA02D0B01B90190010C01CA01A00144
:101620001124FF27591B99F0593F50F4503E68F19F
:101630001A16F040A22F232F342F4427585FF3CFE0
:10164000469537952795A795F0405395C9F77EF4B1
:101650001F16BA0B620B730B840BBAF09150A1F0FA
:10166000FF0FBB1F661F771F881FC2F70EC0BA0F80
:10167000621F731F841F48F4879577956795B79508
:10168000F7959E3F08F0B3CF9395880F08F0992700
:10169000EE0F97958795089571D008F481E008952D
:1016A00004D06894B111D9C00895BCD088F09F5778
:1016B00090F0B92F9927B751A0F0D1F0660F771F9E
:1016C000881F991F1AF0BA95C9F712C0B13081F07E
:1016D000C3D0B1E00895C0C0672F782F8827B85FC6
:1016E00039F0B93FCCF3869577956795B395D9F7DF
:1016F0003EF490958095709561957F4F8F4F9F4FE9
:101700000895E89409C097FB3EF4909580957095F4
:1017100061957F4F8F4F9F4F9923A9F0F92F96E93D
:10172000BB279395F695879577956795B795F111B2
:10173000F8CFFAF4BB0F11F460FF1BC06F5F7F4F4F
:101740008F4F9F4F16C0882311F096E911C0772361
:1017500021F09EE8872F762F05C0662371F096E86A
:10176000862F70E060E02AF09A95660F771F881F39
:10177000DAF7880F9695879597F90895990F0008DD
:10178000550FAA0BE0E8FEEF16161706E807F90753
:10179000C0F012161306E407F50798F0621B730BEE
:1017A000840B950B39F40A2661F0232B242B252B6F
:1017B00021F408950A2609F4A140A6958FEF811D12
:1017C000811D089597F99F6780E870E060E00895B3
:1017D0009FEF80EC089500240A9416161706180649
:1017E0000906089500240A94121613061406050625
:1017F0000895092E0394000C11F4882352F0BB0FB6
:1018000040F4BF2B11F460FF04C06F5F7F4F8F4F18
:101810009F4F089557FD9058440F551F59F05F3F53
:1018200071F04795880F97FB991F61F09F3F79F002
:1018300087950895121613061406551FF2CF469584
:10184000F1DF08C0161617061806991FF1CF869506
:101850007105610508940895E894BB2766277727EA
:10186000CB0197F908958ADF08F48FEF08950BD024
:10187000C0CFB1DF28F0B6DF18F0952309F0A2CF72
:10188000A7CF1124EACFC6DFA0F3959FD1F3950F20
:1018900050E0551F629FF001729FBB27F00DB11DF4
:1018A000639FAA27F00DB11DAA1F649F6627B00D84
:1018B000A11D661F829F2227B00DA11D621F739F6D
:1018C000B00DA11D621F839FA00D611D221F749F7B
:1018D0003327A00D611D231F849F600D211D822FC2
:1018E000762F6A2F11249F5750408AF0E1F0882309
:1018F0004AF0EE0FFF1FBB1F661F771F881F915016
:101900005040A9F79E3F510570F05CCFA6CF5F3FD6
:10191000ECF3983EDCF3869577956795B795F79548
:10192000E7959F5FC1F7FE2B880F911D96958795D0
:1019300097F90895629FD001739FF001829FE00D97
:10194000F11D649FE00DF11D929FF00D839FF00D3E
:10195000749FF00D659FF00D9927729FB00DE11DEA
:10196000F91F639FB00DE11DF91FBD01CF011124C7
:10197000089597FB092E07260AD077FD04D049D099
:1019800006D000201AF4709561957F4F0895F6F700
:10199000909581959F4F0895A1E21A2EAA1BBB1B1B
:1019A000FD010DC0AA1FBB1FEE1FFF1FA217B3072B
:1019B000E407F50720F0A21BB30BE40BF50B661F41
:1019C000771F881F991F1A9469F760957095809505
:1019D00090959B01AC01BD01CF01089597FB092EA5
:1019E00005260ED057FD04D0D7DF0AD0001C38F4EE
:1019F00050954095309521953F4F4F4F5F4F08953B
:101A0000F6F790958095709561957F4F8F4F9F4F1A
:101A10000895AA1BBB1B51E107C0AA1FBB1FA61735
:101A2000B70710F0A61BB70B881F991F5A95A9F787
:101A300080959095BC01CD010895EE0FFF1F059094
:0A1A4000F491E02D0994F894FFCF13
:101A4A0001006003360002016B00D300A000B90058
:101A5A00D500A8000A019A003F018F007401850091
:101A6A00A9017D00DE01740013026D0048026500C1
:101A7A007D025E00B2025700E7024F001C034600D7
:101A8A0051033D0086033200BB032200F00302002B
:0C1A9A0001000000008F09DC09F40900C5
:00000001FF
